:020000040800F2
:10000000604900205D020008AF2500083922000881
:10001000AD25000821050008793000080000000027
:100020000000000000000000000000009D0100082A
:10003000E105000800000000F9010008352700086C
:1000400077020008770200087702000877020008AC
:100050007702000877020008E3050008E9050008B8
:10006000EF050008F5050008FB0500087702000809
:10007000770200087702000877020008770200087C
:10008000770200087702000877020008770200086C
:10009000770200087702000877020008770200085C
:1000A0007702000877020008770200080528000898
:1000B000770200087702000877020008770200083C
:1000C000770200087702000877020008770200082C
:1000D000770200084D300008770200087702000818
:1000E000770200087702000877020008770200080C
:1000F000770200081128000877020008770200083C
:1001000077020008770200087702000877020008EB
:1001100077020008770200087702000877020008DB
:10012000770200087702000825050008770200081A
:1001300077020008770200087702000877020008BB
:1001400077020008770200087702000877020008AB
:1001500077020008770200083105000877020008DE
:10016000770200087702000877020008770200088B
:1001700077020008770200087702000800000000FC
:100180007702000877020008DFF80CD000F002F9CF
:1001900000480047B1320008604900202C4B196824
:1001A0000868B0E8F04F80F30988BFF36F8F4FF015
:1001B000000080F3118870470000000008480068C4
:1001C000006880F308884FF0000080F3148862B65E
:1001D00061B6BFF34F8FBFF36F8F00DF00BF00BF6B
:1001E00008ED00E0DFF80C00016841F470010160E7
:1001F000704700BF88ED00E0EFF30980BFF36F8F19
:10020000134B1A681EF0100F08BF20ED108A20E96A
:10021000F04F106009B44FF0100080F31188BFF365
:100220004F8FBFF36F8F03F021FD4FF0000080F37D
:10023000118809BC19680868B0E8F04F1EF0100F6B
:1002400008BFB0EC108A80F30988BFF36F8F704746
:1002500080000020EFF305807047000006488047CB
:1002600006480047FEE7FEE7FEE7FEE7FEE7FEE79B
:10027000FEE7FEE7FEE7FEE7F52700088901000834
:100280002DE9F05F0546002092469B4688460646CB
:10029000814640241BE0284641464746224600F05E
:1002A00069F853465A46C01A914110D31146184670
:1002B000224600F050F82D1A67EB01084F462246FF
:1002C0000120002100F047F817EB00094E41201EE5
:1002D000A4F10104DFDC484631462A464346BDE826
:1002E000F09F40EA01039B0703D009E008C9121FF1
:1002F00008C0042AFAD203E011F8013B00F8013BE0
:10030000521EF9D27047D2B201E000F8012B491E0B
:10031000FBD270470022F6E710B513460A460446A2
:100320001946FFF7F0FF204610BD30B50B460146D9
:1003300000202022012409E021FA02F59D4205D384
:1003400003FA02F5491B04FA02F52844151EA2F12E
:100350000102F1DC30BD202A04DB203A00FA02F170
:10036000002070479140C2F1200320FA03F31943A3
:1003700090407047202A04DB203A21FA02F0002145
:10038000704721FA02F3D040C2F1200291400843A5
:1003900019467047064C074D06E0E06840F001033F
:1003A00094E8070098471034AC42F6D3FFF7F0FE0C
:1003B0005841000878410008574810B501780529D0
:1003C00001D900210170C9B24A1C027006297DD2F0
:1003D000DFE801F003163649697D08214F4801F036
:1003E00023FC08214D4801F003F9002260214B480D
:1003F00001F023FF0021494801F0B2FB002111E088
:100400000021464801F010FC0021444801F0F0F8BA
:1004100008226021414801F010FF08213F4801F007
:100420009FFB08213D4801F083F8042270213B48DE
:1004300001F003FF0421394801F092FB042165E03B
:100440000421364801F0F0FB0421344801F0D0F8D3
:1004500008226021314801F0F0FE08212F4801F008
:100460007FFB082111E008212C4801F0DDFB082169
:100470002A4801F0BDF804226021284801F0DDFE81
:100480000421264801F06CFB0421244801F050F8B7
:1004900000227021214801F0D0FE00211F4801F008
:1004A0005FFB002132E000211C4801F0BDFB002170
:1004B0001A4801F09DF804226021184801F0BDFEA1
:1004C0000421164801F04CFB042112E023E0042132
:1004D000124801F0A9FB0421104801F089F800221C
:1004E00060210E4801F0A9FE00210C4801F038FB04
:1004F00000210A4801F01CF808227021074801F089
:100500009CFE0821054801F02BFB0821BDE81040A6
:10051000024801F00DB810BD6C000020400300201F
:10052000FEE70000014800F0D9B800006407002091
:10053000014800F0D3B80000C40700200168182368
:10054000CAB2103AB2FBF3F2054B6FF30901032A6A
:100550009B5CC36500D9091D816508467047000092
:10056000F440000810B5014600208B698A6A4FF0FC
:10057000C07453B1B3F5005F15D072B1012A0CD02D
:10058000022A0AD0032A09D104E01AB1012A06D0AE
:10059000022A03D1C96AC90100D5012010BDC96A68
:1005A000A142FAD010BD002AF7D0012AF2D0022AC7
:1005B000F3D0032AF3D010BD30B50468256825F4C4
:1005C00080252560046863608368402B036803D03E
:1005D00099600068C26030BD9A600068C16030BD3B
:1005E0007047012000F08ABA022000F087BA042088
:1005F00000F084BA082000F081BA102000F07EBA22
:1006000072B6FEE705480068C16841F01001C1609C
:100610004FF480720249014801F02CBD20070020F0
:10062000200600202DE9F0410446876D00F07CFB98
:10063000064694F835000025022806D08020606523
:1006400084F834500120BDE8F0812068016821F071
:10065000160101602068416921F080014161206C30
:1006600008B9A06C20B12068016821F00801016080
:100670002068016821F0010101600CE000F054FBEA
:10068000801B052807D920206065032084F83500E9
:1006900084F83450D7E720680068C007EED194F89A
:1006A0005C103F208840B860012084F8350084F851
:1006B00034500020C7E790F83510022903D080217C
:1006C000416501207047052180F8351000680168F8
:1006D00021F0010101600020704700002DE9F8437E
:1006E00004464FF00009CDF8009063484FF41651CE
:1006F000A56D0068B0FBF1F72E6894F85C10082037
:1007000000FA01F131420FD021680A6852070BD577
:100710000A6822F004020A6094F85C108840A8601D
:10072000606D40F00100606594F85C104FF00108C6
:1007300008FA01F0304208D021684969090604D559
:10074000A860606D40F00200606594F85C100420C1
:100750008840304208D021680968890704D5A8601C
:10076000606D40F00400606594F85C1010208840D3
:10077000304218D021680968090714D5A86020689C
:100780000168490304D50068000308D5A16C07E09F
:100790000168C90503D4016821F008010160216CDA
:1007A00009B12046884794F85C10202088403042E8
:1007B00031D021680968C9062DD5A86094F83500A4
:1007C00005282068016806D0490347D50068000362
:1007D0001DD4616C1CE021F01601016020684169A4
:1007E00021F080014161206C08B9A06C20B1206823
:1007F000016821F00801016094F85C103F208840F6
:10080000A86084F8358084F83490216D1FE0E16B96
:1008100009B120468847606D00282BD0606DC00765
:1008200014D0052084F835002068016821F001010A
:1008300001600098401C0090B84203D8206800680E
:10084000C007F6D184F8358084F83490E16C002933
:1008500010D001B02046BDE8F04308470168C90543
:10086000D5D4016821F01001016084F8358084F846
:100870003490CCE7BDE8F8837C0000202DE9F041FE
:10088000044600F051FA06465CB1022084F83500B7
:10089000002584F834502068016821F001010160CE
:1008A0000DE00120BDE8F08100F03EFA801B052834
:1008B00005D920206065032084F83500F2E7206820
:1008C0000068C007F0D12268116820480140D4E9CF
:1008D00001031843D4E903363343184363691843CB
:1008E000A3691843E3691843236A18430843616AFC
:1008F000042903D1D4E90B1319430843106020687D
:100900004069666A20F0070130460E43012704283B
:100910000CD1A06A0643E06A40B12046FFF722FEF0
:1009200020B14020606584F83570BAE720684661E0
:100930002046FFF703FE94F85C203F219140816040
:10094000656584F835700020ACE700003F8010F04A
:100950002DE9F0410446866D90F834000025012809
:100960000DD0012084F8340094F835700020012F58
:1009700007D084F8340002252846BDE8F081022023
:10098000FBE7022784F8357060652046FFF714FE08
:1009900094F85C103F208840B0602068016841F006
:1009A00016010160206C20B12068016841F0080147
:1009B00001602068016841F001010160DCE700008E
:1009C0002DE9F04746490880DFF81891464E474C1C
:1009D000474A4FF480654FF4007801280FD0022871
:1009E0001DD004282ED008284AD0102828D1102144
:1009F0001746104600F086F900285CD06EE0012111
:100A0000104600F07FF940B92946484600F07FF9CA
:100A100001224146304600F082F901200FE0022118
:100A20001646104600F06EF940B92946484600F0D7
:100A30006EF901222021304600F071F90220206079
:100A4000BDE8F08704211646104600F05BF9A8B90E
:100A50002946484600F05BF901224021304600F06B
:100A60005EF92448006803F0C9FA012806D122493A
:100A700000070860BFF34F8FBFF36F8F0420DEE7DE
:100A800008211746104600F03DF990B9294648461E
:100A900000F03DF900222021384600F040F9002204
:100AA0004021384600F03BF900224146304600F034
:100AB00036F90820C3E72946484600F028F9012204
:100AC0002021384600F02BF901224021384600F061
:100AD00026F901224146304600F021F91020AEE708
:100AE0000000002000200240001C0240143C014095
:100AF000001002401400002004ED00E0044910B58D
:100B00000A68024202D00860FFF75AFF10BD0000D9
:100B1000143C01402DE9F84FDFF8BCA1002201256B
:100B200003264FF00F090AF1040BAAF1040E00BFCF
:100B30000B6805FA02F42340A34270D10F7907F045
:100B40000307012F01D0022F16D187684FEA420810
:100B500006FA08FC27EA0C07D1F80CC00CFA08FCCE
:100B60004CEA070CC0F808C04768A7430C79C4F3E7
:100B7000001494403C4344600C79E443A4070AD039
:100B8000C4684FEA420C06FA0CF7BC438F6807FAB8
:100B90000CF72743C7600C7904F00304022C12D130
:100BA000D40800EB840CDCF820405707FF0E09FA4C
:100BB00007F824EA0804D1F8108008FA07F848EA90
:100BC0000408CCF8208004684FEA420C06FA0CF7BF
:100BD000BC430F7907F0030707FA0CF727430760B8
:100BE0004C6814F4403F70D03C4C276847F4804771
:100BF0002760246822F0030704F480440094384CF2
:100C000007EB040CDCF8084897074FEA177809FA55
:100C100008F7BC43334FB84202D1002724E054E028
:100C2000314FB84201D101271EE0304FB84201D107
:100C3000022719E02E4FB84201D1032714E02D4FAF
:100C4000B84201D104270FE02B4FB84201D105274C
:100C50000AE02A4FB84201D1062705E0284FB842E2
:100C600001D1072700E0082707FA08F72743CCF847
:100C70000878DAF800405746D1F804C09C435FEA90
:100C8000CC2C00D51C433C60DBF800405F46D1F81B
:100C900004C09C435FEA8C2C00D51C433C60DEF80A
:100CA00000407746D1F804C09C435FEA8C3C00D5F5
:100CB0001C433C60084F083F3C68D1F804C09C438B
:100CC0005FEACC3C00D51C433C60521C102AFFF468
:100CD0002FAFBDE8F88F0000083C014044380240C7
:100CE00000300140000002400004024000080240C1
:100CF000000C0240001002400014024000180240A4
:100D0000001C02400069084000D001207047426981
:100D100021EA02030A4043EA0241816170470AB1B5
:100D2000816170470904FBE7014880687047000053
:100D30007000002002488168027811448160704789
:100D4000700000200B4810B5016841F4007101608B
:100D5000016841F480610160016841F480710160C3
:100D6000032000F09FF80F2000F006F800F050F884
:100D7000002010BD003C024030B505461F4887B03A
:100D80000024016841F480710160006806A900F444
:100D90008070009001A800F031F90498A8B100F02B
:100DA0004DF940001649174AB0FBF1F11648491EAB
:100DB000026040F2E732C0E90324C0E90114846113
:100DC00000F04AFC040003D015E000F037F9E9E731
:100DD0000D4800F08DFC04000DD12D2000F034F8FA
:100DE000102D07D2002229462D2000F03BF807489D
:100DF000056000E0012407B0204630BD40380240C5
:100E000040420F0000200040240800207400002011
:100E10000C4882B0016841F480410160006800F430
:100E2000804000900748001F016841F08051016038
:100E30000068002200F0805000900F21901E02B048
:100E400000F010B844380240002809DB00F01F020F
:100E5000012191404009800000F1E020C0F800111C
:100E600070470000F0B40E4B1B680C46C3F302231E
:100E7000C3F10705042D00D90425191D072901D246
:100E8000002300E0DB1E012606FA05F1491E214081
:100E900099409E40761E16403143F0BC02F0FEB8E9
:100EA0000CED00E0064900F0070208684FF6FF036A
:100EB000184040EA0220034A1043086070470000CF
:100EC0000CED00E00000FA052DE9F0470E460500A4
:100ED00065D0DFF81481D8F80000F7B200F0070001
:100EE000B04207D288F80070D8F8000000F0070080
:100EF000B04254D128683D4C810712D5400703D534
:100F0000206840F4E05020602878000703D520686E
:100F100040F4604020602068A96820F0F000084399
:100F200020602878C0072DD030496868083901282A
:100F300012D0022813D0032811D00968890700298C
:100F40002DDA216821F0030101432160FFF7ECFE57
:100F5000814641F2883A0EE009688903EFE70968A3
:100F60008901ECE7FFF7E0FEA0EB0901514502D94A
:100F70000320BDE8F0872068696800F00C00B0EB42
:100F8000810FEFD1D8F80010404601F00701B142BF
:100F900007D90770006800F00700B04201D00120B7
:100FA000E7E72878400705D52068E96820F4E05095
:100FB000084320602878000706D52068296920F4B6
:100FC000604040EAC100206000F058F82168084AFB
:100FD000C1F30311515CC840064908600648006827
:100FE000FFF7CAFE0020C4E7003C02400838024078
:100FF000FC4000087C000020740000200F220260EA
:101000000C4A136803F003034360136803F0F00312
:101010008360136803F4E053C36012684FF4E05335
:1010200003EAD20202610448006800F00700086089
:101030007047000008380240003C0240044805495F
:1010400000680968044AC1F38221515CC8407047B6
:101050007C000020083802400C4100080448054983
:1010600000680968044AC1F34231515CC8407047C6
:101070007C000020083802400C410008154810B5DB
:10108000006810F00C02144813D04110042A0FD04D
:10109000082A0ED10F4C241F2268236802F03F0259
:1010A0005B0207D52068C0F38810A0FB010106E0B1
:1010B000084610BD2168C1F38811A1FB000100237F
:1010C000FFF7DEF82168C1F30141491C4900B0FB7C
:1010D000F1F010BD083802400024F4002DE9F84F6B
:1010E00004006ED02078DFF84C93C007A9F1040506
:1010F0004AD009F104000168C1F38101012908D037
:101100000068C0F3810002280AD1D9F8000040022B
:1011100006D52868800337D560680028E1D033E021
:101120006068B0F5803F10D0B0F5A02F286810D0CF
:1011300020F480302860286820F4802028606068CF
:10114000A8B1FFF7F1FD06460DE0286840F48030B5
:10115000F4E740F480202860F7E700BFFFF7E4FDE4
:10116000801B642873D828688003F7D50CE0FFF74C
:10117000DBFD064605E000BFFFF7D6FD801B6428B7
:10118000F0D828688003F7D42078DFF8AC82800795
:101190004FF0000A3ED5A748001D016811F00C0F62
:1011A00008D00068C0F3810002280BD1D9F80000F4
:1011B000400207D42868800716D5E068012800D1CE
:1011C00012E033E1E068B8B10120C8F80000FFF791
:1011D000ABFD064605E000BFFFF7A6FD801B022819
:1011E000C0D828688007F7D52868216920F0F80062
:1011F00040EAC10028600DE0C8F800A0FFF794FDA8
:10120000064604E0FFF790FD801B02281FD82868DF
:101210008007F7D42078000722D5864F8748616978
:10122000703771B101210160FFF77EFD064604E0D1
:10123000FFF77AFD801B022809D838688007F7D5A8
:101240000EE0C0F800A0FFF76FFD064605E082E063
:10125000FFF76AFD801B02287DD838688007F7D425
:101260002078400768D5DFF8CCB100270BF13C0BA4
:10127000DBF80000C0000BD4DBF8001041F0805117
:10128000CBF80010DBF80000012700F08050009040
:101290006B4E3068C00510D4306840F48070306008
:1012A000FFF742FD009005E0FFF73EFD0099401A70
:1012B000022850D83068C005F6D55E4EA0686C365E
:1012C00001280FD00528306810D020F001003060D0
:1012D000306820F004003060A068B8B1FFF724FD4A
:1012E00000900FE0306840F00100F4E740F00400A7
:1012F0003060F7E7FFF718FD0099411A41F2883096
:10130000814266D830688007F4D50EE0FFF70CFD07
:10131000009007E0FFF708FD0099411A41F288307C
:10132000814256D830688007F4D42FB1DBF8001022
:1013300021F08051CBF80010A069C8B33D49091DC8
:101340000968C1F3810102294AD00228504607D01A
:10135000C8F8600000E03CE0FFF7E6FC04463BE034
:101360004746C8F86000FFF7DFFC064605E000BF0F
:10137000FFF7DAFC801B02282BD828688001F7D4FD
:10138000D4E907010843A16A2E4A490802EB01414A
:10139000626A41EA8211084394F82C1040EA016124
:1013A000C9F8001001203866FFF7BEFC044606E0CD
:1013B0003EE000BFFFF7B8FC001B022809D82868F0
:1013C0008001F7D534E000BFFFF7AEFC001B022818
:1013D00002D90320BDE8F88F28688001F4D427E003
:1013E0000128F7D0D9F80000E26900F480019142A9
:1013F0001CD1226A00F03F01914217D147F6C0711B
:10140000626A0140B1EB821F10D1A26A4FF0FF3334
:1014100000F4403103EB5202B1EB024F06D194F8D5
:101420002C1000F07060B0EB016F01D00120D1E70B
:101430000020CFE70438024000004742800E4742B8
:10144000007000400000FFFF7047704710B590F833
:101450003C20012A22D0012280F83C20CA688C68F6
:1014600022F4407222434C6822F4806222430C68CA
:1014700022F4006222430C6922F4805222434C6918
:1014800022F400522243C969002322F480420A4315
:1014900001684A6480F83C30002010BD022010BD75
:1014A00070B590F83C20012A32D0012480F83C40ED
:1014B000022280F83D2003685A689D6822F0700679
:1014C0000A6832435A60134B02689A4214D0B2F150
:1014D000804F11D0104B9A420ED0104B9A420BD035
:1014E0000F4B9A4208D00F4B9A4205D00E4B9A42AE
:1014F00002D00E4B9A4204D1496825F0800319436B
:10150000916080F83D40002180F83C10084670BD95
:10151000022070BD000001400004004000080040AF
:10152000000C004000040140004001400018004051
:1015300010B50446022249B104290ED0082913D05F
:1015400094F84500012816D0012010BD94F84200FF
:101550000128F9D184F842200FE094F843000128D3
:10156000F2D184F8432008E094F844000128EBD13C
:1015700084F8442001E084F845200422206801F02A
:10158000BEF92068416C41F4004141641149206872
:10159000884214D0B0F1804F11D00F4988420ED04C
:1015A0000E4988420BD00E49884208D00D49884226
:1015B00005D00D49884202D00C49884204D1816887
:1015C00001F00701062903D0016841F00101016023
:1015D000002010BD00000140000400400008004051
:1015E000000C004000040140004001400018004091
:1015F00070B504460D460068002201F080F92068AD
:10160000036A41F211110B4240F2444206D1036ACF
:10161000134203D1436C23F4004343642068036AFC
:101620000B4206D1016A114203D1016821F0010188
:10163000016001203DB1042D08D0082D09D084F8A7
:101640004500002070BD84F84200FAE784F84300AA
:10165000F7E784F84400F4E710B5040003D094F8E9
:101660003D0010B107E0012010BD002084F83C00CF
:10167000204600F01FF8022084F83D00211D20685C
:1016800001F0CCF8012084F8460084F83E0084F88C
:101690003F0084F8400084F8410084F8420084F858
:1016A000430084F8440084F8450084F83D0000209D
:1016B00010BD000008B500680B49884212D10B48E4
:1016C000016841F0010101600068002200F00100A2
:1016D000009001211B20FFF7C5FBBDE808401B203F
:1016E000FFF7B2BB08BD00000000014044380240D3
:1016F00090F83D10012901D001207047022180F8A7
:101700003D100168CA6842F00102CA6000681149D0
:10171000884214D0B0F1804F11D00F4988420ED0CA
:101720000E4988420BD00E49884208D00D498842A4
:1017300005D00D49884202D00C49884204D1816805
:1017400001F00701062903D0016841F001010160A1
:1017500000207047000001400004004000080040E5
:10176000000C00400004014000400140001800400F
:1017700070B5044690F83C000025012817D00126DA
:1017800084F83C60022084F83D002068826822F0E2
:10179000770222F47F4282600868502838D00DDC3E
:1017A00020284FD005DC90B3102811D14AE0022048
:1017B00070BD302846D040280AD13BE060282FD0A9
:1017C00070280DD0B0F5805F03D0B0F5005F12D067
:1017D000012584F83D60002084F83C00284670BD57
:1017E000CB68D1E90121206801F096F82068816872
:1017F00041F0770109E0CB68D1E90121206801F0CF
:101800008BF82068816841F480418160E1E719E04C
:10181000CA684968206801F053F95021206806E041
:10182000CA684968206801F05CF96021206801F00D
:101830007DF8CEE7CA684968206801F041F9402187
:101840002068F4E7226801461046F0E7704770B55B
:101850000446006801694FF00005C943890715D4A3
:10186000C168C943890711D4E91E016101202077AD
:10187000206880698007204602D0FFF7E7FF04E078
:1018800000F0D8F8204600F06AF925772068016951
:10189000C943490717D4C168C943490713D46FF036
:1018A00004010161022020772068806910F4407FE4
:1018B000204602D0FFF7CAFF04E000F0BBF8204644
:1018C00000F04DF9257720680169C943090716D44E
:1018D000C168C943090712D46FF0080101610420EF
:1018E00020772068C0698007204602D0FFF7AEFF4E
:1018F00004E000F09FF8204600F031F925772068D9
:101900000169C943C90617D4C168C943C90613D4BC
:101910006FF010010161082020772068C06910F481
:10192000407F204602D0FFF791FF04E000F082F8EC
:10193000204600F014F9257720680169C943C907DA
:1019400008D1C168C943C90704D1891E0161204675
:1019500000F0A8F920680169C943090609D4C168E3
:10196000C943090605D46FF0800101612046FFF7E5
:101970006BFD20680169C943490609D4C168C943A0
:10198000490605D46FF040010161204600F094F94A
:1019900020680169C94389060BD4C168C943890617
:1019A00007D46FF0200101612046BDE87040FFF7C9
:1019B0004CBD70BD70B586B0044614216846FEF774
:1019C000A9FC18492068884229D11748016841F0CC
:1019D00002010160016801F002010591016841F016
:1019E000010101600068022400F0010005904FF43D
:1019F0006040CDE9000402AA0325012682E87000B8
:101A000069460A48FFF786F84FF4E060CDE9000424
:101A100002AA694682E870000548FFF77BF806B025
:101A200070BD000000000140303802400004024058
:101A300000000240704770B5044690F83C00002654
:101A40000D4601280FD0012084F83C006AB1042A19
:101A50001DD0082A2FD00C2A3FD00126002084F860
:101A60003C00304670BD022070BD206800F066FF6B
:101A70002068816941F0080181612068816921F055
:101A800004018161206881692A69114311E020689D
:101A900000F084FF2068816941F400618161206861
:101AA000816921F480618161206881692A6941EA44
:101AB00002218161D2E7206800F0A6FF2068C16999
:101AC00041F00801C1612068C16921F00401C161D0
:101AD0002068C1692A69114311E0206800F0C8FF3D
:101AE0002068C16941F40061C1612068C16921F4C5
:101AF0008061C1612068C1692A6941EA0221C1612E
:101B0000ACE710B5040003D094F83D0010B107E035
:101B1000012010BD002084F83C00204600F01EF893
:101B2000022084F83D00211D206800F077FE01208E
:101B300084F8460084F83E0084F83F0084F84000B2
:101B400084F8410084F8420084F8430084F844009B
:101B500084F8450084F83D00002010BD70477047B0
:101B600010B50446022249B104290ED0082913D029
:101B700094F84100012816D0012010BD94F83E00D1
:101B80000128F9D184F83E200FE094F83F000128A5
:101B9000F2D184F83F2008E094F840000128EBD10E
:101BA00084F8402001E084F841200122206800F000
:101BB00099FE16492068164A884201D0904203D106
:101BC000436C43F4004343642068884213D0B0F16F
:101BD000804F10D00F4988420DD00F4988420AD05B
:101BE0000E49884207D0904205D00D49884202D064
:101BF0000C49884204D1816801F00701062903D00D
:101C0000016841F001010160002010BD00000140A9
:101C1000000401400004004000080040000C0040A7
:101C2000004001400018004030B504460D460068F1
:101C3000002200F057FE194B41F2111120688A1062
:101C4000984202D0164B984209D1036A0B4206D142
:101C5000036A134203D1436C23F4004343642068B6
:101C6000036A0B4206D1016A114203D1016821F0D7
:101C70000101016001203DB1042D08D0082D09D0DB
:101C800084F84100002030BD84F83E00FAE784F873
:101C90003F00F7E784F84000F4E70000000001404F
:101CA0000004014000680349884201D1FFF742B8AF
:101CB00070470000002000407047704770470000E8
:101CC000F8B5016804460868CA684B6910F00F0F40
:101CD0004FF0000559D003F0010602F49077374326
:101CE00065D0C10705D0D10503D5216C41F00101B4
:101CF0002164410705D5D90703D0216C41F00201C9
:101D00002164810705D5D90703D0216C41F0040176
:101D10002164010707D502F02001314303D0216C73
:101D200041F008012164216C00293AD0800604D5D5
:101D3000900602D5204601F01DF820684069216C0C
:101D4000C0F38010090700D460B3204600F0DDFF27
:101D500020684069400621D52068143050E8001FF3
:101D600021F0400140E80012002AF5D1A06BA8B193
:101D70006C490165A06BFEF79EFC002811D0A06B9A
:101D8000016D01B0BDE8F040084783060FD593060A
:101D90000DD52046BDE8F84000F0ECBF2046FFF727
:101DA0008DFFF8BD2046FFF789FF2564F8BD266B3F
:101DB0002023012E79D1C60677D5D60675D50868B9
:101DC000486800904869400640D5A16B08684068A3
:101DD0000004000CEAD0A28D8242E7D9E085C869F0
:101DE000B0F5807F2DD020680C3050E8001F21F422
:101DF000807140E80012002AF5D12068143050E8C4
:101E0000001F21F0010140E80012002AF5D12068EE
:101E1000143050E8001F21F0400140E80012002A71
:101E2000F5D184F83E30256320680C3050E8001F5F
:101E300021F0100140E80012002AF5D1A06BFEF756
:101E4000F1FBA08DE18D401A81B229E0A08DE18DDA
:101E5000401A81B2E08D0028A8D00029A6D02068C1
:101E60000C3050E8002F22F4907240E80026002E3B
:101E7000F5D12068143050E8002F22F0010240E82C
:101E80000026002EF5D184F83E30256320680C3002
:101E900050E8002F22F0100240E80023002BF5D17B
:101EA0002046FFF70AFFF8BDFFE705062BD515060C
:101EB00029D594F83D002128F5D1A068B0F5805FC0
:101EC00001D12069B0B1206A411C216221680078EB
:101ED0004860E08C401E0004000CE084E3D12068E0
:101EE000C16821F08001C1602068C16841F04001F3
:101EF000C160D8E7206A0088C0F308004860206A03
:101F0000801C2062E5E74006CDD55006CBD5CA68D7
:101F1000204622F04002CA6084F83D3000F08AF981
:101F2000C1E70000C92B000870B5040004D094F884
:101F30003D00002510B106E0012070BD84F83C5042
:101F4000204600F023F8242084F83D002068C16872
:101F500021F40051C160204600F06CFF2068016947
:101F600021F4904101612068416921F02A01416119
:101F70002068C16841F40051C1602564202084F8C4
:101F80003D0084F83E00002070BD00002DE9F041C6
:101F900086B0064614216846FEF7BCF93049306821
:101FA000884259D12F480024016841F01001016096
:101FB000006800F0100005902A481438016841F0CC
:101FC000020101600068694600F002000590C0202F
:101FD00000900220CDE90104032003900720049023
:101FE0002148FEF797FD224D20484FF000672860FA
:101FF000C5E901744FF48068C5E9034880156C6138
:10200000C5E906402C6228466C62FEF737FC08B131
:10201000FEF7F6FAB563AE63154D144860357830B7
:10202000E5E802074020A5E81101114845F81449E8
:102030006030AC61EC612C626C62FEF71FFC08B191
:10204000FEF7DEFA7563002201212520AE63FEF75C
:1020500009FF2520FEF7F8FE06B0BDE8F08100007C
:102060000010014044380240000402404064024035
:102070006407002090F83E30202B0ED159B152B1A8
:1020800090F83C30012B08D0012380F83C3000232D
:10209000036300F055BF0120704702207047000025
:1020A00010B5044600680E49884217D10D480068F3
:1020B0004068C0F580700204120C0FD0A06B00685D
:1020C000016821F0010101600749084800F0C2FAE7
:1020D000A06B0068016841F00101016010BD0000C3
:1020E00000100140640700202006002008040020A2
:1020F000704700002DE9F843044690F83D001F4664
:1021000016460D4620284CD1C5B1BEB194F83C000E
:10211000012846D0012084F83C004FF00008C4F8A4
:102120004080212084F83D00FEF7FEFDA684814614
:10213000E684A068B0F5805F03D004E00120BDE82C
:10214000F883206928B12E465FF0000584F83C80B2
:102150000EE00026FAE78021204600F03BFFA0B900
:10216000AEB116F8010B21684860E08C401EE08497
:10217000E08C4B464FF0000200970028EBD14FF067
:102180004001204600F026FF30B10320D7E735F8A4
:10219000020BC0F30800E6E7202084F83D00002091
:1021A000CDE70220CBE7000070B5044690F83D0073
:1021B000202836D191B38AB394F83C00012830D05E
:1021C000012084F83C002162A284E2840025256479
:1021D000212084F83D00636B1348D863636B134878
:1021E0001864636B1248D864606B134605652668F3
:1021F000606B321DFEF7ACFB21686FF04000086099
:1022000084F83C502068143050E8001F41F08001F1
:1022100040E80012002AF5D1002070BDFFE7012040
:10222000FBE70220F9E70000BF2C0008012D0008A1
:10223000D92B000870477047FEE700684AB1042AAE
:102240000DD0082A04D1C26922F073020A43C26188
:102250007047826922F073020A4382617047826983
:1022600022F4E64242EA0121816170470D4808B537
:10227000016841F4800101600068002200F48000E0
:10228000009001213A20FEF7EDFD3A20FEF7DCFD3B
:10229000002201214620FEF7E5FDBDE8084046206A
:1022A000FEF7D2BD3038024010B59CB01C22164952
:1022B0006846FEF716F80021684601F020F8134C36
:1022C00011491C22E0601C3107A8FEF70AF8002122
:1022D00007A801F014F80C4920611C2238310EA81F
:1022E000FDF7FFFF00210EA801F009F80649606123
:1022F0001C22543115A8FDF7F4FF002115A800F0A9
:10230000FEFFA0601CB010BD844000080400002047
:102310002DE9F04786B014216846FDF7FBFF4848D9
:102320000025016841F010010160016801F0100111
:102330000591016841F480710160016801F48071C8
:102340000591016841F080010160016801F08001A0
:102350000591016841F002010160016801F002018C
:102360000591016841F0010101600068DFF8D48047
:1023700000F001000590002260214046FEF7CFFCEE
:10238000DFF8C4904FF48066002231464846FEF7DD
:10239000C6FCDFF8B8A07710002239465046FEF799
:1023A000BEFC1F2000904FF404100124CDE901046D
:1023B00069464046FEF7AEFB6020CDE90004694661
:1023C0004046CDE90245FEF7A5FBCDE9006469462C
:1023D0004846CDE90245FEF79DFBCDE9007469460C
:1023E0005046CDE90245FEF795FB00220F2106205D
:1023F000FEF738FD0620FEF727FD00220F210720FB
:10240000FEF730FD0720FEF71FFD00220F210820F8
:10241000FEF728FD0820FEF717FD00220F210920F6
:10242000FEF720FD0920FEF70FFD00220F210A20F4
:10243000FEF718FD0A20FEF707FD06B0BDE8F0879D
:10244000303802400010024000200240001C0240D0
:1024500010B596B000240F94109411941294139414
:102460001C2168461494FDF755FF202107A8FDF7AD
:1024700051FF334831490160A7214160202181602B
:102480006321C0E9031444618461FFF7E5F808B1F2
:10249000FEF7B6F84FF480500F900FA92848FFF7C9
:1024A00067F908B1FEF7ACF82548FFF72AFB08B139
:1024B000FEF7A6F8139413A921481494FEF7F0FF31
:1024C00008B1FEF79DF8602000903220CDE90104AC
:1024D0000394049405940022694619480694FFF772
:1024E000AAFA08B1FEF78CF8042269461448FFF7EF
:1024F000A2FA08B1FEF784F8082269461048FFF7EF
:102500009AFA08B1FEF77CF84FF40060079040108B
:10251000CDE908042220CDE90A044FF400500C90C4
:1025200007A90E940648FEF791FF08B1FEF768F878
:102530000348FFF73FFA16B010BD0000000001404D
:10254000400300200C4810B50A4901604FF4E13106
:102550004160002181600C22C160C0E904128161E8
:10256000C161FFF7E1FC002803D0BDE81040FEF791
:1025700047B810BD001001402007002070B5134679
:1025800018B113B10022084C05E0002070BD855C35
:10259000A554521CD2B28A42F9D30A4602491846BF
:1025A000FFF702FE012070BD88030020FEE7FEE772
:1025B0000B4C0C4E00252088012803D020880228CF
:1025C00004D007E0306901F0EBFA02E0306901F075
:1025D00073FA2580FDF7F0FE052000F084FEEAE79F
:1025E000000000200400002070B515460E460400CF
:1025F00007D036B1A16821B1002D02DDA088A84224
:1026000001DA002070BD6088E2880144121AAA42F3
:102610000BDB2A463046FDF764FE6088E1882844DB
:1026200090FBF1F201FB12000EE03046FDF759FE7F
:10263000E0886188401A2A1A3044A168FDF751FEEB
:10264000E0886188401A281A6080A088401BA0801A
:10265000012070BD70B515460E46040009D046B184
:10266000A16831B1002D04DDE288A088101AA842CB
:1026700001DA002070BD2088121AAA4208440BDB40
:102680002A463146FDF72DFE2088E188284490FB3C
:10269000F1F201FB12000FE03146FDF722FEE08867
:1026A0002188421A3044411AAA1AA068FDF719FE7F
:1026B000E0882188401A281A2080A0882844A08019
:1026C000012070BD002807D0002A05D00023038018
:1026D00043808380C18082607047000010B5084A43
:1026E0004FF480742146A2F11800FFF7EBFF054A72
:1026F0002146BDE81040A2F58670FFF7E3BF000059
:102700002004002020050020094E4FF47A79A6F11C
:10271000140404F1280504F13C07A4F1180826610B
:1027200035612F614846C8F8044000F0DCFDF6E74B
:102730003000002010B5102080F31188BFF34F8FB8
:10274000BFF36F8F01F092FB18B104494FF0805036
:102750000860002080F3118810BD000004ED00E047
:1027600030B593B030216846FDF7D4FD14210CA894
:10277000FDF7D0FD1D480025016841F08051016042
:10278000006800F0805011901948016841F48041C0
:1027900001600068022400F4804011900120039041
:1027A00010200490009406940820CDE90750A8203A
:1027B000CDE9090404200B906846FEF78FFC08B1B0
:1027C00072B6FEE70CA90F2081E831004FF4A0504B
:1027D0000F904FF48050109005210CA8FEF774FB69
:1027E000002801D072B6FEE713B030BD4038024079
:1027F000007000400248016841F4700101607047B8
:1028000088ED00E00148FFF722B8000040030020F7
:102810000148FFF71CB8000024080020F0B502684A
:10282000254C264D264E274F274B4FF0804CA0427B
:1028300009D0604507D0A84205D0B04203D0B842C5
:1028400001D0984204D122F0700E4A6842EA0E028A
:10285000A0421BD0604519D0A84217D0B04215D075
:10286000B84213D0984211D0184DA8420ED0184D3E
:10287000A8420BD0174DA84208D0174DA84205D04A
:10288000164DA84202D0164DA84203D122F440753D
:10289000CA682A434D6922F080022A4302608A688E
:1028A000C2620A688262A04201D0984201D10969DD
:1028B000016301214161F0BD0000014000040040BE
:1028C00000080040000C00400004014000400140AE
:1028D000004401400048014000180040001C004036
:1028E0000020004010B501F01F030121046A994047
:1028F0008C430462016A9A401143016210BD10B515
:1029000001F01F030421046A99408C430462016AA8
:102910009A401143016210BD10B5846842EA032257
:1029200024F47F440A432243826010BD826822F06F
:1029300070020A4342F0070181607047F0B5026AF5
:1029400022F001020262036A42688469124E24F096
:1029500073050C682C4323F002058B682B430D4D47
:10296000A84201D0B04205D123F00807CB683B4311
:1029700023F00403A84201D0B04205D14D6922F4EE
:10298000407215438A692A43426084614968416301
:102990000362F0BD0000014000040140F0B5026A8E
:1029A00022F010020262026A436884690D6824F40E
:1029B000E64444EA05248D6822F0200242EA05122A
:1029C0000F4D104EA84201D0B04206D1CF6822F080
:1029D000800242EA071222F04002A84201D0B0422F
:1029E00007D14D6923F4406343EA85038D6943EAC7
:1029F000850343608461496881630262F0BD000021
:102A00000000014000040140F0B5026A22F4807227
:102A10000262026A4368C46922F4007224F07305FA
:102A20000C68124E2C438D6842EA05220E4DA842D6
:102A300001D0B04206D1CF6822F4006242EA0722F8
:102A400022F48062A84201D0B04207D14D6923F43C
:102A5000405343EA05138D6943EA05134360C4619B
:102A60004968C1630262F0BD0000014000040140FA
:102A700030B5026A22F480520262046A4268C36975
:102A80000D6823F4E64343EA05238D6824F40054DB
:102A900044EA0534084DA84202D0084DA84204D1AA
:102AA0004D6922F4804242EA85124260C36149685E
:102AB0000164046230BD00000000014000040140D8
:102AC00010B5036A046A24F001040462846924F0E6
:102AD000F00444EA021423F00A020A438461026209
:102AE00010BD10B5036A23F0100303628369046A02
:102AF00023F4704343EA023224F0A00343EA0111B5
:102B00008261016210BD000008B50F4C0FA000F0FB
:102B1000B5FA60680DE0C1680091017A4E2910D0C5
:102B200010A34268016810A000F0A8FA606800696C
:102B300060600028EFD100F069FF0A2000F0D3FBAD
:102B4000E4E70DA3EDE7000004000020B1E0BAC502
:102B500009D0D5C3FB09D0D4B1F009C4EAC1E40A55
:102B600000000000C5AE0000256409257309257327
:102B70000925640A00000000C4D00000C0B04FF472
:102B800080716846FDF7C6FB0B4C0C4E0C4DA088BF
:102B900070B120213046FEF7BAF8A2882A70694643
:102BA0000548FFF721FD074A29786846FFF7E6FC4C
:102BB000012000F098FBEAE7080400200010024022
:102BC000040000202007002010B5806B0021C18583
:102BD000C184FFF773F810BD70B5846B206840693D
:102BE00094F83D10C0F3C0100025212904D118B17C
:102BF000E584204600F0B0F82068406994F83E1063
:102C0000C0F38010222904D118B1E585204600F0D8
:102C10007CF8206C40F0100020642046FFF74EF84E
:102C200070BD10B50146806B09680968C9052FD4CD
:102C30000021C18501680C3151E8002F22F4807217
:102C400041E80023002BF5D10168143151E8002F31
:102C500022F0010241E80023002BF5D10168143174
:102C600051E8002F22F0400241E80023002BF5D16B
:102C7000202180F83E10016B012909D101680C3137
:102C800051E8002F22F0100241E80023002BF5D17B
:102C9000016B012902D0FFF703FA10BD818DFFF708
:102CA0000CF810BD10B5806B016B012902D0FFF745
:102CB0001FFA10BD818D4908FEF7FFFF10BD10B54A
:102CC0000146806B09680968C90516D40021C184D2
:102CD0000168143151E8002F22F0800241E80023FE
:102CE000002BF5D101680C3151E8002F42F0400271
:102CF00041E80023002BF5D110BDFFF79BFA10BD72
:102D000010B5806BFFF797FA10BD01680C3151E8E0
:102D1000002F22F4907241E80023002BF5D10168C6
:102D2000143151E8002F22F0010241E80023002B6A
:102D3000F5D1016B012909D101680C3151E8002F4F
:102D400022F0100241E80023002BF5D1202180F869
:102D50003E1000210163704701680C3151E8002FDB
:102D600022F0C00241E80023002BF5D1202180F899
:102D70003D10704708B590F83E10222901D002207E
:102D800008BD82684FF480539A4201D1016921B194
:102D9000816A9A421BD04AB10AE00268816A52688D
:102DA000C2F308020A80816A891C08E0026972B1D4
:102DB0000268526802F07F020A70816A491C8162CF
:102DC000C18D491E0904090CC18503D019E00268B0
:102DD0005268F1E70168CA6822F02002CA600168FF
:102DE000CA6822F48072CA6001684A6922F001024E
:102DF0004A61202180F83E10016B012903D0FFF7C2
:102E00004FF9002008BD0021016301680C3151E831
:102E1000002F22F0100241E80023002BF5D10168B9
:102E20000A68D20602D50A6849680091818DFEF7CA
:102E300044FFE6E770B5044600680169E26821F4E2
:102E40004051114301612169A068E2690843616949
:102E5000114308432168CA6849F20C639A4302434C
:102E6000CA6020684169A26921F44071114341613F
:102E700031492068884202D03049884202D1FEF7A9
:102E8000EDF801E0FEF7DAF8E26900231921642584
:102E90003226B2F5004F626828D0A0FB0101930FE3
:102EA0009200FDF7EDF90146B0FBF5F06FF0180266
:102EB000504301EB800006EB0010B0FBF5F000F092
:102EC000F002B1FBF5F002EB0012B1FBF5F06FF090
:102ED0001803584301EB800006EB0010B0FBF5F03F
:102EE00000F00F0021681044886070BDA0FB010154
:102EF00092185B41FDF7C4F90146B0FBF5F0020101
:102F0000B1FBF5F06FF01803584301EB800006EBBE
:102F1000C000B0FBF5F000F0F80002EB4002B1FB9E
:102F2000F5F0584301EB800006EBC000B0FBF5F074
:102F300000F00700D6E70000001001400014014037
:102F400038B5816282850025134604460564222037
:102F500084F83E00A26B1C48D063A26B1B4810642F
:102F6000A26B1B48D064A06B0A4605652168A06B64
:102F7000091DFDF7EDFC206801684068009084F8A9
:102F80003C50206948B120680C3050E8001F41F4E3
:102F9000807140E80012002AF5D12068143050E812
:102FA000001F41F0010140E80012002AF5D120681D
:102FB000143050E8001F41F0400140E80012002AA0
:102FC000F5D1002038BD0000232C0008A52C0008F6
:102FD000D92B00082DE9F041984617460E460446C5
:102FE000069D27E0681C25D02DB1FDF79DFEA0EBC6
:102FF0000800A8421ED920680C3050E8001F21F4B8
:10300000D07140E80012002AF5D12068143050E851
:10301000001F21F0010140E80012002AF5D1202014
:1030200084F83D0084F83E00002084F83C00032032
:10303000BDE8F0812068006836EA000004D0002076
:10304000B842CFD00020F3E70120F9E708B50948DE
:10305000FEF736FE074800680168C943C90607D471
:10306000016840680090BDE808400248FFF718B8C2
:1030700008BD000020070020FEE700000FB4054B4C
:1030800010B503A9044A029800F028F810BC5DF8B6
:1030900014FB000095320008E80000200907090E23
:1030A000002804DB00F1E02080F80014704700F0F5
:1030B0000F0000F1E02080F8141D704702E008C8FE
:1030C000121F08C1002AFAD170477047002001E0A2
:1030D00001C1121F002AFBD1704700002DE9FF4FEC
:1030E0008BB09A460F460546002606E025280BD0F1
:1030F00052460D9990476D1C761C28780028F5D112
:103100000FB03046BDE8F08F0024A0460122604990
:1031100000E0044315F8013F203B02FA03F00842A7
:10312000F7D128782E2817D115F8010F44F00404A0
:103130002A280ED06FF02F022878A0F1300109293B
:103140000AD808EB880102EB410100EB01086D1C75
:10315000F2E757F8048B6D1C287869283ED006DC0E
:103160000028CDD063280BD0642804D136E0732822
:1031700010D075284BD052460D999047761C85E0AB
:1031800017F8040B8DF8000000208DF80100E946C7
:10319000012003E057F8049B4FF0FF3061074FF028
:1031A000000401D40AE0641C44450DDA8442FADBD1
:1031B00019F804100029F6D106E0641C8442FCDBF7
:1031C00019F804100029F8D1264404E019F8010B7D
:1031D00052460D999047641EF8D257E001CF4FF048
:1031E0000A0B002802DA40422D2102E0210504D515
:1031F0002B218DF82410012103E0E10705D02021C7
:10320000F7E70DF1200908910CE00021F9E701CF63
:103210004FF00A0BF9E75946FDF787F801F1300244
:1032200009F8012D0028F6D1ADEB090000F1200BC3
:10323000600701D44FF00108D84502DDA8EB0B0070
:1032400000E000208046002406E009A85246005D08
:103250000D999047641C761C08988442F5DB04E0C5
:10326000302052460D999047761CB8F10001A8F124
:103270000108F5DC05E019F8010B52460D9990475D
:10328000761CBBF10001ABF1010BF4DC6D1C34E7E3
:103290000928010008B5FF238DF8000001226946C6
:1032A0000248FEF727FF002008BD0000200700208D
:1032B000FFF714FAFDF746FDFFF752FAFFF728F87B
:1032C000FEF7D4FFFFF73EF9FFF7C2F8FDF79AF9D2
:1032D000FEF7EAFF00F00EF8FEE701460020842921
:1032E00000D0C81C704710B500B9012000F068FB81
:1032F000002010BD10B500F01DFC002010BD7FB5F2
:103300000D4604464169B0F9080081B1A16971B167
:10331000FFF7E3FFD4E905128DE80700D4E90010B8
:103320002B46226900F077FD039004B070BDFFF7D3
:10333000D4FF03A9CDE90001208A2B4682B2D4E94B
:10334000001000F03BFD012801D00020EDE70398BC
:10335000EBE700002DE9F041184C0F460546E66802
:103360002068001D00F03AFA38B9206890F82C1057
:1033700001208840216981432161681C07D137B150
:103380002168BDE8F0410E48091D00F06BBA2068C5
:103390003544B5424560216805D2A06BBDE8F041D7
:1033A000091D00F047BA606B091D00F043FAA06ADE
:1033B000854200D2A562BDE8F081000080000020B7
:1033C000480900202DE9F041054600F057FA2E4C3F
:1033D000A068401CA06020682C4F10B1606940B309
:1033E0002DE02560A068012829D1002606EB860083
:1033F00007EB800000F010FA761C072EF6D3234866
:103400008C3000F009FA2148A03000F005FA1F487E
:10341000B43000F001FA1D48C83000F0FDF91B4837
:10342000DC3000F0F9F919488C3060631430A06387
:1034300005E02068E96AC06A884200D82560606AB1
:10344000401C6062E96A01202269884010432061C3
:1034500001EB810007EB8000291D00F003FA00F06A
:103460002DFA606900280CD02068E96AC06A884299
:1034700007D207494FF080500860BFF34F8FBFF36A
:103480006F8FBDE8F0810000800000206C080020F4
:1034900004ED00E010B5044690F8510058B1012841
:1034A0000CD002280FD0102080F31188BFF34F8F6B
:1034B000BFF36F8FFEE7206B00F014FA2046BDE8E3
:1034C000104000F00FBA10BD10484FF47051420781
:1034D00006D0C01D0D4920F00700411AC1F57051FA
:1034E0000B4A00230144C2E900030839183A21F0CD
:1034F000070111604B600B600B1AC0E90013936069
:103500004FF0004053605061704700005C0900209C
:10351000D4000020144E154CA6F1C8074FF0805877
:10352000DFF84C9012E000BF00F0A8F9F068C56821
:10353000281D00F053F9A068401EA0606068401E7E
:10354000606000F0BBF92846FFF7A4FF6068002820
:10355000EAD138680128F9D9C9F80080BFF34F8F44
:10356000BFF36F8FF2E700003409002080000020D5
:1035700004ED00E02DE9F0479A46DDE90984814633
:103580006FF00303206B03EB82021044089E20F0CF
:103590000707780707D0102080F31188BFF34F8FFB
:1035A000BFF36F8FFEE7002561B1002023180A5C8E
:1035B00083F834200A5C12B1401C1028F6D384F83A
:1035C000435001E084F83450072E00D30626E6620B
:1035D000C4E91165201D00F02AF904F1180000F07B
:1035E00026F92461C6F107006462A061E56484F8ED
:1035F000505052464946384600F0DAF82060B8F19B
:10360000000F01D0C8F80040BDE8F08730B511497F
:1036100000E011460A688242FBD34B685C18844282
:1036200003D1406818444860084643681C18944217
:1036300009D1084C183C2468A24209D052681A44A7
:1036400042600A6812680260814200D0086030BDA2
:103650000460F9E7D40000200648416B096829B1ED
:10366000416BC968C9684968816270474FF0FF3192
:10367000FAE700008000002008484068401C4FF036
:10368000100080F3118804D0BFF34F8FBFF36F8F0A
:10369000FEE7BFF34F8FBFF36F8FFEE7DC00002024
:1036A000002150B10A4B42699A420FD1806AA3F1BE
:1036B000280290420AD040B108E0102080F311881F
:1036C000BFF34F8FBFF36F8FFEE7012108467047AE
:1036D000480900202DE9F0410546002700F0BEFA18
:1036E000324E306808B9FFF7EFFE706905424ED1DF
:1036F000C5B3083568070ED005F00700C0F1080013
:103700000544680707D0102080F31188BFF34F8F5E
:10371000BFF36F8FFEE72DB37068854237D823481B
:10372000183001460C6801E020460C466168A94249
:1037300002D221680029F7D131688C4227D007686E
:103740002168016060680837411B10290FD9601992
:10375000420708D0102080F31188BFF34F8FBFF3CA
:103760006F8FFEE713E041606560FFF74FFF616810
:103770007068401A7060B268904200D2B0607069A0
:1037800001430020C4E90001F068401CF06000F033
:10379000D3FB780707D0102080F31188BFF34F8F39
:1037A000BFF36F8FFEE73846BDE8F081BC00002014
:1037B00010B5031F4FF080741C601B1F21F0010126
:1037C0001960191F044B0B6014390A60091F6FF050
:1037D000020244380A6010BD79360008D0E901328F
:1037E00001699A60D0E901235A604A68824201D196
:1037F00082684A60002202610868401E086008680A
:1038000070470000034B036003F154000860802000
:1038100010607047EC00002000F108014FF0FF320B
:10382000C0E90112C16001610021016070470021FF
:103830000161704730B50B685A1C02D000F10802D4
:1038400002E0026904E02246546825689D42FAD9E4
:1038500053684B6099608A60516008610168491C37
:10386000016030BD42684A6093688B60936859601C
:10387000916008610168491C01607047102080F365
:103880001188BFF34F8FBFF36F8F0A494868401C00
:10389000486001280CD10848006810F0FF0F07D0DD
:1038A000102080F31188BFF34F8FBFF36F8FFEE7B7
:1038B00070470000DC00002004ED00E00849486883
:1038C00028B1401E486001D180F311887047102054
:1038D00080F31188BFF34F8FBFF36F8FFEE70000B7
:1038E000DC00002070B500282AD0164DA0F1080495
:1038F00060686969084207D1102080F31188BFF31E
:103900004F8FBFF36F8FFEE722683AB1102080F32C
:103910001188BFF34F8FBFF36F8FFEE7884360605E
:1039200000F09CF960686968084468602046FFF709
:103930006DFE2869401C2861BDE8704000F0FCBAAB
:1039400070BD0000BC0000204FF0E02000210161AC
:10395000816105494FF47A720968B1FBF2F1491EA1
:1039600041610721016170477C00002010B5FCF720
:1039700071FC114910280ED300F1E02090F8F003FB
:103980000A78904207D2102080F31188BFF34F8F3E
:10399000BFF36F8FFEE709480068896800F4E060B4
:1039A000884207D9102080F31188BFF34F8FBFF3EF
:1039B0006F8FFEE710BD0000DC0000200CED00E082
:1039C00010B5020014D00F48006B38B1102080F3FE
:1039D0001188BFF34F8FBFF36F8FFEE700F03EF902
:1039E00000211046FFF7B6FC00F0A6FA002807D128
:1039F00005494FF080500860BFF34F8FBFF36F8FC2
:103A000010BD00008000002004ED00E070B5054608
:103A1000FFF734FF254C05B92568281DFFF7DEFEAA
:103A200058B9E86A224A00EB800152F8211021B906
:103A300001218140206988432061A86A18B105F1FD
:103A40001800FFF7CBFE606A401C60622068854268
:103A500008D11748291DC830FFF704FF6068401CD3
:103A6000606007E0A068401EA0602846FFF712FDD6
:103A7000FFF7F2FDFFF722FF6069002814D02068ED
:103A8000854211D1206B38B1102080F31188BFF32B
:103A90004F8FBFF36F8FFEE706494FF080500860ED
:103AA000BFF34F8FBFF36F8F70BD00008000002009
:103AB0006C08002004ED00E070B504002BD01A4D16
:103AC000286884422FD0FFF7D9FE2046FFF7E8FD93
:103AD000E8B1201DFFF782FEE06A01212A698140DA
:103AE00011432961114900EB800001EB8000211D89
:103AF000FFF7B8FEE06A2968C96A884207D30C4913
:103B00004FF080500860BFF34F8FBFF36F8FBDE859
:103B10007040FFF7D3BE102080F31188BFF34F8FA2
:103B2000BFF36F8FFEE770BD800000206C0800209F
:103B300004ED00E010B586B00024039405AA04A9A2
:103B400003A80494FFF75EFEDDE903010094CDE9CC
:103B5000011000230EA11048059A00F05CF90F49EE
:103B60000028C86211D0102080F31188BFF34F8F56
:103B7000BFF36F8F4FF0FF30886201204861CC6047
:103B800006B0BDE8104000F09FB806B010BD0000C0
:103B900049444C4500000000153500088000002015
:103BA00070B50446FFF76AFE294D04B92C68201D44
:103BB000FFF714FE58B9E06A264A00EB800152F87C
:103BC000211021B901218140286988432861A06A18
:103BD00018B104F11800FFF701FE1E48211DDC306A
:103BE000FFF740FE94F850000026012801D184F828
:103BF0005060FFF763FE686928B1FFF73FFEFFF7EB
:103C00002BFDFFF75BFE2868844213D1686990B1F1
:103C1000286B38B1102080F31188BFF34F8FBFF3AA
:103C20006F8FFEE70C494FF080500860BFF34F8F55
:103C3000BFF36F8F70BD0748DC300068A968884209
:103C400001D12E6070BDBDE8704000F00FB80000DB
:103C5000800000206C08002004ED00E00248016BA9
:103C6000491C016370470000800000201448016B6C
:103C700011B10121C16170470021C1610169B1FA2F
:103C800081F1C1F11F0101EB81020E4951F822308F
:103C90006BB101EB820101F108034A6852684A6086
:103CA0009A4201D152684A60D16801607047102081
:103CB00080F31188BFF34F8FBFF36F8FFEE70000D3
:103CC000800000206C0800201CB537480168374A86
:103CD000914207D1102080F31188BFF34F8FBFF3BB
:103CE0006F8FFEE700683149491E884207D11020D6
:103CF00080F31188BFF34F8FBFF36F8FFEE72C491E
:103D000008780190FF20087008788DF800009DF871
:103D100000009DF8002000F0F000904207D0102035
:103D200080F31188BFF34F8FBFF36F8FFEE79DF8CD
:103D30000000204C00F0100020700720A06005E07B
:103D40009DF8002052008DF80020401E9DF80020B4
:103D50001206F5D4A060032807D0102080F3118844
:103D6000BFF34F8FBFF36F8FFEE74FF44070A0603B
:103D7000019808700C482030016841F4700101601E
:103D8000016841F070410160FFF7DEFD00206060D6
:103D9000FCF728FA0848016841F040410160FCF74F
:103DA0000DFA00201CBD000000ED00E071C20F41C3
:103DB00000E400E0DC00002034EF00E02DE9FF5FCC
:103DC0008346DDE90E87994616468A469000FFF73E
:103DD00081FC05001CD05420FFF77CFC040014D0AB
:103DE0000020256384F85100CDE90240CDE9008729
:103DF0004B46324651465846FFF7BCFB2046FFF77C
:103E0000E1FA012004B0BDE8F09F2846FFF76AFD03
:103E10004FF0FF30F6E7F0B585B0DDE90B640A9DA1
:103E2000A6B1DCB1542700972663022684F85160BE
:103E3000002604AFCDE90246CDE90057FFF79AFB13
:103E40002046FFF7BFFA049805B0F0BD102080F3BC
:103E50001188BFF34F8FBFF36F8FFEE7102080F301
:103E60001188BFF34F8FBFF36F8FFEE72DE9F0414D
:103E70002F4C0026206B28B1A069401CA061304661
:103E8000BDE8F081E5686D1CE56013D1606B0068EA
:103E900038B1102080F31188BFF34F8FBFF36F8FBD
:103EA000FEE7606BA16B6163A063206A401C206227
:103EB000FFF7D2FBA06ADFF87C80854209D3606BF4
:103EC0000068A0B1606BC068C7687868854211D28D
:103ED000A0622068C06A00EB800158F82100012828
:103EE00000D90126E0690028C9D00126C7E74FF0B4
:103EF000FF30EDE7381DFFF771FCB86A18B107F124
:103F00001800FFF76BFCF96A012022698840104312
:103F1000206101EB810108EB8100391DFFF7A2FC54
:103F2000F86A2168C96A8842C9D30126C7E7000038
:103F3000800000206C0800202DE9F0472C4D002463
:103F40002746286B38B1FFF799FC286B401E286381
:103F5000286B40B146E0102080F31188BFF34F8FEB
:103F6000BFF36F8FFEE7A968224E0120D1B3A6F1FF
:103F7000B40980463068E8B1F068C46804F11800FC
:103F8000FFF72CFC201DFFF729FCE06A2A6908FADC
:103F900000F11143296100EB800109EB8100211D33
:103FA000FFF760FCE06A2968C96A8842E2D3C5F875
:103FB0001C80DFE70CB1FFF74FFBAC6944B146460C
:103FC000FFF754FF00B1EE61641EF9D10020A86133
:103FD000E86938B10849012738070860BFF34F8FF7
:103FE000BFF36F8FFFF76AFC3846BDE8F08700002B
:103FF000800000202009002004ED00E02DE9F041C0
:104000000027040015D0FFF7B1FC1020EFF3118555
:1040100080F31188BFF34F8FBFF36F8F2046FFF7F8
:104020003FFB30B3154E306B58B104F11801144802
:104030001DE0102080F31188BFF34F8FBFF36F8F07
:10404000FEE7E06A3168C96A884200D30127201D73
:10405000FFF7C4FBE16A01203269884010433061F8
:1040600001EB81000649B43901EB8000211DFFF707
:10407000F9FB85F311883846BDE8F0818000002007
:104080002009002024410008092700080000000042
:1040900000000000800000000000000000000000A0
:1040A000304100087D2B00080300000000000000E4
:1040B0000001000000000000000000001C4100089A
:1040C000B1250008FDFF0000000000000001000015
:1040D000000000000000000014410008092B000847
:1040E000FDFF0000000000000001000000000000D3
:1040F0000000000000061016000610160000000068
:104100000000000001020304060708090000000087
:10411000010203047461736B310000005072696E18
:104120007466000064656661756C745461736B003D
:104130005478527800000000C0EECBC400000000AC
:10414000CDF5CEE500000000D5D4C1F90000000097
:10415000D5C5C8FD0000000078410008000000201F
:10416000EC000000BC30000864420008EC000020B5
:1041700074480000CC30000800000000000000007F
:10418000000000000000000000000000000000002F
:104190000000000001000000504100084E00000037
:1041A000120000000000000002000000384100087A
:1041B0005600000013000000000000000300000093
:1041C000404100084E000000140000000000000004
:1041D00004000000484100085600000015000000DF
:1041E00000000000000000000100000010000000BE
:1041F000000000000024F4000000000000000000A7
:1042000000000000000000000000000000000000AE
:10421000000000000000000000000000000000009E
:10422000000000000000000000000000000000008E
:10423000000000000000000000000000000000007E
:10424000000000000000000000000000000000006E
:104250000000000000000000AAAAAAAA00000000B6
:04426000000000005A
:040000050800018965
:00000001FF
