:020000040800F2
:10000000B04800205D020008C71B0008A1190008C5
:10001000C51B00088D030008252300080000000010
:100020000000000000000000000000009D0100082A
:100030004D04000800000000F9010008F51C00084C
:1000400077020008770200087702000877020008AC
:1000500077020008770200084F04000855040008E2
:100060005B040008610400086704000877020008C8
:10007000770200087702000877020008770200087C
:10008000770200087702000877020008770200086C
:10009000770200087702000877020008770200085C
:1000A00077020008C51D00087702000877020008E3
:1000B000770200087702000877020008770200083C
:1000C000770200087702000877020008770200082C
:1000D00077020008F922000877020008770200087A
:1000E000770200087702000877020008770200080C
:1000F00077020008770200087702000877020008FC
:1001000077020008770200087702000877020008EB
:1001100077020008770200087702000877020008DB
:1001200077020008770200089103000877020008B0
:1001300077020008770200087702000877020008BB
:1001400077020008770200087702000877020008AB
:1001500077020008770200089D0300087702000874
:10016000770200087702000877020008770200088B
:1001700077020008770200087702000800000000FC
:100180007702000877020008DFF80CD000F0ECF8E6
:100190000048004765230008B04800202C4B196830
:1001A0000868B0E8F04F80F30988BFF36F8F4FF015
:1001B000000080F3118870470000000008480068C4
:1001C000006880F308884FF0000080F3148862B65E
:1001D00061B6BFF34F8FBFF36F8F00DF00BF00BF6B
:1001E00008ED00E0DFF80C00016841F470010160E7
:1001F000704700BF88ED00E0EFF30980BFF36F8F19
:10020000134B1A681EF0100F08BF20ED108A20E96A
:10021000F04F106009B44FF0100080F31188BFF365
:100220004F8FBFF36F8F02F043FC4FF0000080F35D
:10023000118809BC19680868B0E8F04F1EF0100F6B
:1002400008BFB0EC108A80F30988BFF36F8F704746
:100250001C000020EFF3058070470000064880472F
:1002600006480047FEE7FEE7FEE7FEE7FEE7FEE79B
:10027000FEE7FEE7FEE7FEE7B51D0008890100087E
:100280002DE9F05F0546002092469B4688460646CB
:10029000814640241BE0284641464746224600F05E
:1002A00053F853465A46C01A914110D31146184686
:1002B000224600F03AF82D1A67EB01084F46224615
:1002C0000120002100F031F817EB00094E41201EFB
:1002D000A4F10104DFDC484631462A464346BDE826
:1002E000F09F40EA01039B0703D009E008C9121FF1
:1002F00008C0042AFAD203E011F8013B00F8013BE0
:10030000521EF9D27047D2B201E000F8012B491E0B
:10031000FBD270470022F6E710B513460A460446A2
:100320001946FFF7F0FF204610BD202A04DB203AD3
:1003300000FA02F1002070479140C2F1200320FA38
:1003400003F3194390407047202A04DB203A21FA36
:1003500002F00021704721FA02F3D040C2F12002DE
:100360009140084319467047064C074D06E0E06887
:1003700040F0010394E8070098471034AC42F6D3EC
:10038000FFF706FFAC2E0008CC2E0008FEE70000A9
:10039000014800F0D9B80000B4060020014800F080
:1003A000D3B800001407002001681823CAB2103A1D
:1003B000B2FBF3F2054B6FF30901032A9B5CC365A3
:1003C00000D9091D8165084670470000782E000895
:1003D00010B5014600208B698A6A4FF0C07453B192
:1003E000B3F5005F15D072B1012A0CD0022A0AD0F1
:1003F000032A09D104E01AB1012A06D0022A03D146
:10040000C96AC90100D5012010BDC96AA142FAD04C
:1004100010BD002AF7D0012AF2D0022AF3D0032A15
:10042000F3D010BD30B50468256825F4802525601B
:10043000046863608368402B036803D09960006898
:10044000C26030BD9A600068C16030BD7047012055
:1004500000F070BA022000F06DBA042000F06ABA11
:10046000082000F067BA102000F064BA72B6FEE708
:1004700005480068C16841F01001C1604FF4807206
:100480000249014801F004BA7006002070050020FE
:100490002DE9F0410446876D00F062FB064694F8B2
:1004A00035000025022806D08020606584F834508D
:1004B0000120BDE8F0812068016821F0160101608B
:1004C0002068416921F080014161206C08B9A06C6D
:1004D00020B12068016821F00801016020680168EE
:1004E00021F0010101600CE000F03AFB801B0528BF
:1004F00007D920206065032084F8350084F8345043
:10050000D7E720680068C007EED194F85C103F2060
:100510008840B860012084F8350084F83450002009
:10052000C7E790F83510022903D0802141650120EA
:100530007047052180F835100068016821F001013D
:1005400001600020704700002DE9F84304464FF099
:100550000009CDF8009063484FF41651A56D00686E
:10056000B0FBF1F72E6894F85C10082000FA01F156
:1005700031420FD021680A6852070BD50A6822F071
:1005800004020A6094F85C108840A860606D40F036
:100590000100606594F85C104FF0010808FA01F062
:1005A000304208D021684969090604D5A860606D09
:1005B00040F00200606594F85C10042088403042EE
:1005C00008D021680968890704D5A860606D40F0EB
:1005D0000400606594F85C1010208840304218D008
:1005E00021680968090714D5A860206801684903D3
:1005F00004D50068000308D5A16C07E00168C905AF
:1006000003D4016821F008010160216C09B1204682
:10061000884794F85C1020208840304231D021680F
:100620000968C9062DD5A86094F83500052820680A
:10063000016806D0490347D5006800031DD4616CEA
:100640001CE021F0160101602068416921F0800161
:100650004161206C08B9A06C20B12068016821F0CC
:100660000801016094F85C103F208840A86084F87D
:10067000358084F83490216D1FE0E16B09B120468C
:100680008847606D00282BD0606DC00714D005200E
:1006900084F835002068016821F0010101600098AC
:1006A000401C0090B84203D820680068C007F6D10B
:1006B00084F8358084F83490E16C002910D001B0C2
:1006C0002046BDE8F04308470168C905D5D4016854
:1006D00021F01001016084F8358084F83490CCE773
:1006E000BDE8F883180000202DE9F041044600F031
:1006F00037FA06465CB1022084F83500002584F8FC
:1007000034502068016821F0010101600DE00120F2
:10071000BDE8F08100F024FA801B052805D92020CF
:100720006065032084F83500F2E720680068C007A0
:10073000F0D12268116820480140D4E90103184330
:10074000D4E903363343184363691843A369184354
:10075000E3691843236A18430843616A042903D1F3
:10076000D4E90B1319430843106020684069666A96
:1007700020F0070130460E43012704280CD1A06A5F
:100780000643E06A40B12046FFF722FE20B1402038
:10079000606584F83570BAE7206846612046FFF747
:1007A00003FE94F85C203F2191408160656584F8E8
:1007B00035700020ACE700003F8010F02DE9F041DB
:1007C0000446866D90F83400002501280DD00120E4
:1007D00084F8340094F835700020012F07D084F895
:1007E000340002252846BDE8F0810220FBE70227FD
:1007F00084F8357060652046FFF714FE94F85C10AD
:100800003F208840B0602068016841F01601016017
:10081000206C20B12068016841F008010160206867
:10082000016841F001010160DCE700002DE9F047BB
:100830000146DFF8F0903C4C3C484FF480650129BC
:1008400010D002291ED03A4E4FF4007804292BD044
:10085000082938D0102925D1074600F06FF9002863
:100860004BD05DE00121064600F068F940B9294609
:10087000484600F068F901222021304600F06BF96B
:1008800001200EE00221064600F058F940B9294641
:10089000484600F058F901224021304600F05BF94B
:1008A00002202060BDE8F087042100F047F940B93C
:1008B0002946484600F047F901224146304600F0FB
:1008C0004AF90420EDE70821074600F037F990B90E
:1008D0002946484600F037F900222021384600F02A
:1008E0003AF900224021384600F035F9002241460D
:1008F000304600F030F90820D3E72946484600F09A
:1009000022F901222021384600F025F90122402158
:10091000384600F020F901224146304600F01BF92C
:100920001020BEE700200240143C014000100240AD
:10093000001C0240044910B50A68024202D0086057
:10094000FFF774FF10BD0000143C01402DE9F84F83
:10095000DFF8BCA10022012503264FF00F090AF1A0
:10096000040BAAF1040E00BF0B6805FA02F4234041
:10097000A34270D10F7907F00307012F01D0022F96
:1009800016D187684FEA420806FA08FC27EA0C07E6
:10099000D1F80CC00CFA08FC4CEA070CC0F808C0EF
:1009A0004768A7430C79C4F3001494403C43446067
:1009B0000C79E443A4070AD0C4684FEA420C06FA53
:1009C0000CF7BC438F6807FA0CF72743C7600C7914
:1009D00004F00304022C12D1D40800EB840CDCF8E0
:1009E00020405707FF0E09FA07F824EA0804D1F857
:1009F000108008FA07F848EA0408CCF82080046858
:100A00004FEA420C06FA0CF7BC430F7907F00307D4
:100A100007FA0CF7274307604C6814F4403F70D086
:100A20003C4C276847F480472760246822F003077E
:100A300004F480440094384C07EB040CDCF80848BC
:100A400097074FEA177809FA08F7BC43334FB842C3
:100A500002D1002724E054E0314FB84201D10127F0
:100A60001EE0304FB84201D1022719E02E4FB842A4
:100A700001D1032714E02D4FB84201D104270FE024
:100A80002B4FB84201D105270AE02A4FB84201D1C5
:100A9000062705E0284FB84201D1072700E00827C4
:100AA00007FA08F72743CCF80878DAF800405746E9
:100AB000D1F804C09C435FEACC2C00D51C433C60B9
:100AC000DBF800405F46D1F804C09C435FEA8C2C01
:100AD00000D51C433C60DEF800407746D1F804C0E6
:100AE0009C435FEA8C3C00D51C433C60084F083FA8
:100AF0003C68D1F804C09C435FEACC3C00D51C4361
:100B00003C60521C102AFFF42FAFBDE8F88F0000A4
:100B1000083C0140443802400030014000000240DF
:100B20000004024000080240000C02400010024095
:100B30000014024000180240001C024000690840F6
:100B400000D001207047426921EA02030A4043EACB
:100B50000241816170470AB1816170470904FBE776
:100B600001488068704700000C000020024881683E
:100B700002781144816070470C0000200B4810B5CA
:100B8000016841F400710160016841F48061016015
:100B9000016841F480710160032000F099F80F2092
:100BA00000F006F800F04AF8002010BD003C0240BA
:100BB00030B505461C4887B00024016841F00101AA
:100BC0000160006806A900F00100009001A800F093
:100BD0002BF900F059F915494000B0FBF1F1154827
:100BE000134A491E026040F2E732C0E90324C0E91B
:100BF0000114846100F040FB040012D10D4800F0A4
:100C000069FB04000DD1192000F034F8102D07D233
:100C100000222946192000F03BF80748056000E053
:100C2000012407B0204630BD4438024040420F0046
:100C30000000014074070020100000200C4882B022
:100C4000016841F480410160006800F48040009038
:100C50000748001F016841F08051016000680022D0
:100C600000F0805000900F21901E02B000F010B8EC
:100C700044380240002809DB00F01F0201219140A6
:100C80004009800000F1E020C0F80011704700002A
:100C9000F0B40E4B1B680C46C3F30223C3F10705E7
:100CA000042D00D90425191D072901D2002300E0D5
:100CB000DB1E012606FA05F1491E214099409E409F
:100CC000761E16403143F0BC01F02DBB0CED00E068
:100CD000064900F0070208684FF6FF03184040EA93
:100CE0000220034A10430860704700000CED00E04A
:100CF0000000FA052DE9F0470E46050065D0DFF843
:100D00001481D8F80000F7B200F00700B04207D213
:100D100088F80070D8F8000000F00700B04254D105
:100D200028683D4C810712D5400703D5206840F460
:100D3000E05020602878000703D5206840F4604028
:100D400020602068A96820F0F0000843206028781F
:100D5000C0072DD0304968680839012812D0022810
:100D600013D0032811D00968890700292DDA2168DA
:100D700021F0030101432160FFF7F2FE814641F2B9
:100D8000883A0EE009688903EFE709688901ECE712
:100D9000FFF7E6FEA0EB0901514502D90320BDE8AB
:100DA000F0872068696800F00C00B0EB810FEFD18C
:100DB000D8F80010404601F00701B14207D907708A
:100DC000006800F00700B04201D00120E7E7287872
:100DD000400705D52068E96820F4E050084320600A
:100DE0002878000706D52068296920F4604040EA89
:100DF000C100206000F058F82168084AC1F30311CF
:100E0000515CC8400649086006480068FFF7D0FEFC
:100E10000020C4E7003C024008380240802E000851
:100E200018000020100000200F2202600C4A1368F6
:100E300003F003034360136803F0F0038360136857
:100E400003F4E053C36012684FF4E05303EAD202A4
:100E500002610448006800F0070008607047000065
:100E600008380240003C024004480549006809680F
:100E7000044AC1F38221515CC84070471800002029
:100E800008380240902E00080448054900680968A7
:100E9000044AC1F34231515CC84070471800002039
:100EA00008380240902E0008154810B5006810F070
:100EB0000C02144813D04110042A0FD0082A0ED176
:100EC0000F4C241F2268236802F03F025B0207D503
:100ED0002068C0F38810A0FB010106E0084610BDA1
:100EE0002168C1F38811A1FB00010023FFF7C8F9B5
:100EF0002168C1F30141491C4900B0FBF1F010BD6C
:100F0000083802400024F4002DE9F84F04006ED0A8
:100F10002078DFF84C93C007A9F104054AD009F105
:100F200004000168C1F38101012908D00068C0F301
:100F3000810002280AD1D9F80000400206D52868AD
:100F4000800337D560680028E1D033E06068B0F5F1
:100F5000803F10D0B0F5A02F286810D020F480304A
:100F60002860286820F4802028606068A8B1FFF716
:100F7000F7FD06460DE0286840F48030F4E740F4C1
:100F800080202860F7E700BFFFF7EAFD801B642898
:100F900073D828688003F7D50CE0FFF7E1FD06461B
:100FA00005E000BFFFF7DCFD801B6428F0D828684F
:100FB0008003F7D42078DFF8AC8280074FF0000A76
:100FC0003ED5A748001D016811F00C0F08D000683D
:100FD000C0F3810002280BD1D9F80000400207D4E9
:100FE0002868800716D5E068012800D112E033E1B7
:100FF000E068B8B10120C8F80000FFF7B1FD06466F
:1010000005E000BFFFF7ACFD801B0228C0D82868B0
:101010008007F7D52868216920F0F80040EAC10070
:1010200028600DE0C8F800A0FFF79AFD064604E02E
:10103000FFF796FD801B02281FD828688007F7D489
:101040002078000722D5864F87486169703771B1D3
:1010500001210160FFF784FD064604E0FFF780FDF3
:10106000801B022809D838688007F7D50EE0C0F841
:1010700000A0FFF775FD064605E082E0FFF770FD72
:10108000801B02287DD838688007F7D42078400775
:1010900068D5DFF8CCB100270BF13C0BDBF8000082
:1010A000C0000BD4DBF8001041F08051CBF80010E9
:1010B000DBF80000012700F0805000906B4E306894
:1010C000C00510D4306840F480703060FFF748FDF0
:1010D000009005E0FFF744FD0099401A022850D81F
:1010E0003068C005F6D55E4EA0686C3601280FD07A
:1010F0000528306810D020F001003060306820F002
:1011000004003060A068B8B1FFF72AFD00900FE03E
:10111000306840F00100F4E740F004003060F7E789
:10112000FFF71EFD0099411A41F28830814266D8CE
:1011300030688007F4D50EE0FFF712FD009007E05D
:10114000FFF70EFD0099411A41F28830814256D8CE
:1011500030688007F4D42FB1DBF8001021F0805103
:10116000CBF80010A069C8B33D49091D0968C1F357
:10117000810102294AD00228504607D0C8F86000F1
:1011800000E03CE0FFF7ECFC04463BE04746C8F8D3
:101190006000FFF7E5FC064605E000BFFFF7E0FC56
:1011A000801B02282BD828688001F7D4D4E90701D6
:1011B0000843A16A2E4A490802EB0141626A41EAEA
:1011C0008211084394F82C1040EA0161C9F800101C
:1011D00001203866FFF7C4FC044606E03EE000BF8D
:1011E000FFF7BEFC001B022809D828688001F7D54C
:1011F00034E000BFFFF7B4FC001B022802D9032033
:10120000BDE8F88F28688001F4D427E00128F7D0E2
:10121000D9F80000E26900F4800191421CD1226AF1
:1012200000F03F01914217D147F6C071626A014058
:10123000B1EB821F10D1A26A4FF0FF3300F44031AE
:1012400003EB5202B1EB024F06D194F82C1000F0E0
:101250007060B0EB016F01D00120D1E70020CFE733
:101260000438024000004742800E474200700040B0
:101270000000FFFF7047704710B5040003D094F8DA
:101280003D0010B107E0012010BD002084F83C00B3
:10129000204600F01EF8022084F83D00211D206841
:1012A00000F096FD012084F8460084F83E0084F8A2
:1012B0003F0084F8400084F8410084F8420084F83C
:1012C000430084F8440084F8450084F83D00002081
:1012D00010BD704790F83D10012901D001207047E2
:1012E000022180F83D100168CA6842F00102CA601C
:1012F00000681149884214D0B0F1804F11D00F49D5
:1013000088420ED00E4988420BD00E49884208D040
:101310000D49884205D00D49884202D00C498842C7
:1013200004D1816801F00701062903D0016841F06A
:1013300001010160002070470000014000040040EE
:1013400000080040000C0040000401400040014043
:1013500000180040704770B50446006801694FF0FE
:101360000005C943890715D4C168C943890711D449
:10137000E91E0161012020772068806980072046EE
:1013800002D0FFF7E7FF04E000F098F8204600F0F5
:1013900096F8257720680169C943490717D4C168C1
:1013A000C943490713D46FF004010161022020777B
:1013B0002068806910F4407F204602D0FFF7CAFF02
:1013C00004E000F07BF8204600F079F825772068EB
:1013D0000169C943090716D4C168C943090712D472
:1013E0006FF008010161042020772068C069800740
:1013F000204602D0FFF7AEFF04E000F05FF8204681
:1014000000F05DF8257720680169C943C90617D443
:10141000C168C943C90613D46FF0100101610820E7
:1014200020772068C06910F4407F204602D0FFF783
:1014300091FF04E000F042F8204600F040F82577E4
:1014400020680169C943C90708D1C168C943C907F0
:1014500004D1891E0161204600F032F8206801693C
:10146000C943090609D4C168C943090605D46FF008
:10147000800101612046FFF7FDFE20680169C94334
:10148000490609D4C168C943490605D46FF0400133
:101490000161204600F01EF820680169C9438906F1
:1014A0000BD4C168C943890607D46FF020010161DC
:1014B0002046BDE87040FFF7DEBE70BD7047704744
:1014C00000680349884201D1FFF750BB7047000014
:1014D000000001407047704770470000F8B5016890
:1014E00004460868CA684B6910F00F0F4FF00005FA
:1014F00059D003F0010602F49077374365D0C10755
:1015000005D0D10503D5216C41F0010121644107CB
:1015100005D5D90703D0216C41F002012164810770
:1015200005D5D90703D0216C41F0040121640107DE
:1015300007D502F02001314303D0216C41F00801AE
:101540002164216C00293AD0800604D5900602D58A
:10155000204600F0A1FD20684069216CC0F3801096
:10156000090700D460B3204600F061FD206840699F
:10157000400621D52068143050E8001F21F04001BA
:1015800040E80012002AF5D1A06BA8B16C490165B2
:10159000A06BFEF7C6FF002811D0A06B016D01B053
:1015A000BDE8F040084783060FD593060DD52046C9
:1015B000BDE8F84000F070BD2046FFF78DFFF8BD94
:1015C0002046FFF789FF2564F8BD266B2023012EF6
:1015D00079D1C60677D5D60675D5086848680090D3
:1015E0004869400640D5A16B086840680004000CBB
:1015F000EAD0A28D8242E7D9E085C869B0F5807F44
:101600002DD020680C3050E8001F21F4807140E894
:101610000012002AF5D12068143050E8001F21F094
:10162000010140E80012002AF5D12068143050E88A
:10163000001F21F0400140E80012002AF5D184F893
:101640003E30256320680C3050E8001F21F0100167
:1016500040E80012002AF5D1A06BFEF719FFA08D1B
:10166000E18D401A81B229E0A08DE18D401A81B24E
:10167000E08D0028A8D00029A6D020680C3050E8C2
:10168000002F22F4907240E80026002EF5D1206849
:10169000143050E8002F22F0010240E80026002E0E
:1016A000F5D184F83E30256320680C3050E8002FD7
:1016B00022F0100240E80023002BF5D12046FFF76E
:1016C0000AFFF8BDFFE705062BD5150629D594F8C6
:1016D0003D002128F5D1A068B0F5805F01D12069D7
:1016E000B0B1206A411C2162216800784860E08C1A
:1016F000401E0004000CE084E3D12068C16821F0A2
:101700008001C1602068C16841F04001C160D8E734
:10171000206A0088C0F308004860206A801C2062AC
:10172000E5E74006CDD55006CBD5CA68204622F065
:101730004002CA6084F83D3000F030F9C1E7000093
:10174000ED1E000870B5040004D094F83D0000259B
:1017500010B106E0012070BD84F83C50204600F036
:1017600023F8242084F83D002068C16821F400514A
:10177000C160204600F0F0FC2068016921F490412E
:1017800001612068416921F02A0141612068C16836
:1017900041F40051C1602564202084F83D0084F8A4
:1017A0003E00002070BD00002DE9F04186B00646E5
:1017B00014216846FEF7AEFD30493068884259D1A1
:1017C0002F480024016841F010010160006800F01A
:1017D000100005902A481438016841F002010160A8
:1017E0000068694600F002000590C02000900220C9
:1017F000CDE9010403200390072004902148FFF75E
:10180000A5F8224D20484FF000672860C5E9017413
:101810004FF48068C5E9034880156C61C5E906404E
:101820002C6228466C62FEF75FFF08B1FEF71EFED1
:10183000B563AE63154D144860357830E5E80207AE
:101840004020A5E81101114845F814496030AC6109
:10185000EC612C626C62FEF747FF08B1FEF706FEF2
:101860007563002201212520AE63FFF711FA2520C0
:10187000FFF700FA06B0BDE8F0810000001001405B
:10188000443802400004024040640240B406002094
:1018900090F83E30202B0ED159B152B190F83C3027
:1018A000012B08D0012380F83C300023036300F0B3
:1018B000D9BC0120704702207047000010B50446D3
:1018C00000680E49884217D10D4800684068C0F58D
:1018D00080700204120C0FD0A06B0068016821F028
:1018E000010101600749084800F0A4F9A06B0068F5
:1018F000016841F00101016010BD000000100140CD
:10190000B406002070050020580300207047000036
:1019100070B5044690F83D00202836D191B38AB3C3
:1019200094F83C00012830D0012084F83C0021626A
:10193000A284E28400252564212084F83D00636BA5
:101940001348D863636B13481864636B1248D864F8
:10195000606B134605652668606B321DFEF72EFF2F
:1019600021686FF04000086084F83C502068143013
:1019700050E8001F41F0800140E80012002AF5D134
:10198000002070BDFFE70120FBE70220F9E700001F
:10199000E31F000825200008FD1E0008704770475F
:1019A000FEE700000D4808B5016841F480010160C0
:1019B0000068002200F48000009001213A20FFF727
:1019C00067F93A20FFF756F9002201214620FFF778
:1019D0005FF9BDE808404620FFF74CB930380240B7
:1019E00010B58EB01C220B496846FEF77AFC002128
:1019F000684600F0DCFC084C06491C2260601C3183
:101A000007A8FEF76EFC002107A800F0D0FCA0603C
:101A10000EB010BD402E0008000000202DE9F04758
:101A200086B014216846FEF775FC48480025016819
:101A300041F010010160016801F010010591016899
:101A400041F480710160016801F4807105910168C1
:101A500041F080010160016801F080010591016899
:101A600041F001010160016801F001010591016887
:101A700041F0020101600068DFF8D48000F002004C
:101A80000590002260214046FFF765F8DFF8C4901A
:101A90004FF48066002231464846FFF75CF8DFF8D5
:101AA000B8A07710002239465046FFF754F81F209F
:101AB00000904FF404100124CDE90104694640462A
:101AC000FEF744FF6020CDE9000469464046CDE9B9
:101AD0000245FEF73BFFCDE9006469464846CDE983
:101AE0000245FEF733FFCDE9007469465046CDE963
:101AF0000245FEF72BFF002204210620FFF7C8F85D
:101B00000620FFF7B7F8002204210720FFF7C0F8EE
:101B10000720FFF7AFF8002204210820FFF7B8F8EC
:101B20000820FFF7A7F8002204210920FFF7B0F8EA
:101B30000920FFF79FF8002204210A20FFF7A8F8E8
:101B40000A20FFF797F806B0BDE8F087303802406A
:101B50000010024000200240001C02400C4810B55A
:101B60000A4901604FF4E1314160002181600C229B
:101B7000C160C0E904128161C161FFF7E3FD002883
:101B800003D0BDE81040FEF771BC10BD001001404D
:101B90007006002070B5134618B113B10022084C2E
:101BA00005E0002070BD855CA554521CD2B28A426B
:101BB000F9D30A4602491846FFF7AAFE012070BD74
:101BC000D8020020FEE7FEE770B515460E46040079
:101BD00007D036B1A16821B1002D02DDA088A8424E
:101BE00001DA002070BD6088E2880144121AAA421E
:101BF0000BDB2A463046FEF774FB6088E1882844F8
:101C000090FBF1F201FB12000EE03046FEF769FB9B
:101C1000E0886188401A2A1A3044A168FEF761FB07
:101C2000E0886188401A281A6080A088401BA08044
:101C3000012070BD70B515460E46040009D046B1AE
:101C4000A16831B1002D04DDE288A088101AA842F5
:101C500001DA002070BD2088121AAA4208440BDB6A
:101C60002A463146FEF73DFB2088E188284490FB58
:101C7000F1F201FB12000FE03146FEF732FBE08883
:101C80002188421A3044411AAA1AA068FEF729FB9B
:101C9000E0882188401A281A2080A0882844A08043
:101CA000012070BD002807D0002A05D00023038042
:101CB00043808380C18082607047000010B5084A6D
:101CC0004FF480742146A2F11800FFF7EBFF054A9C
:101CD0002146BDE81040A2F58670FFF7E3BF000083
:101CE00070030020700400204FF47A74204600F046
:101CF00052FBFBE710B5102080F31188BFF34F8F24
:101D0000BFF36F8F00F0D4FF18B104494FF080503B
:101D10000860002080F3118810BD000004ED00E091
:101D200030B593B030216846FEF7F4FA14210CA8C0
:101D3000FEF7F0FA1D480025016841F0805101606E
:101D4000006800F0805011901948016841F480410A
:101D500001600068022400F480401190012003908B
:101D600010200490009406940820CDE90750A82084
:101D7000CDE9090404200B906846FFF7C5F808B1C7
:101D800072B6FEE70CA90F2081E831004FF4A05095
:101D90000F904FF48050109005210CA8FEF7AAFF79
:101DA000002801D072B6FEE713B030BD40380240C3
:101DB000007000400248016841F470010160704702
:101DC00088ED00E00148FFF7C6BA00007407002064
:101DD000F0B50268254C264D264E274F274B4FF075
:101DE000804CA04209D0604507D0A84205D0B0423F
:101DF00003D0B84201D0984204D122F0700E4A6854
:101E000042EA0E02A0421BD0604519D0A84217D06A
:101E1000B04215D0B84213D0984211D0184DA84204
:101E20000ED0184DA8420BD0174DA84208D0174D20
:101E3000A84205D0164DA84202D0164DA84203D1A3
:101E400022F44075CA682A434D6922F080022A4371
:101E500002608A68C2620A688262A04201D0984227
:101E600001D10969016301214161F0BD0000014018
:101E70000004004000080040000C00400004014045
:101E8000004001400044014000480140001800406B
:101E9000001C004000200040C0B04FF48071684634
:101EA000FEF738FA0D4C0E4E0E4DA08870B1202171
:101EB0003046FEF748FEA2882A7069460748FFF7B9
:101EC00083FE094A29786846FFF764FE012000F086
:101ED00062FA012000F088FDE7E7000058030020C7
:101EE00000100240000000207006002010B5806B3A
:101EF0000021C185C184FFF7EFFA10BD70B5846B76
:101F00002068406994F83D10C0F3C01000252129D5
:101F100004D118B1E584204600F0B0F8206840698B
:101F200094F83E10C0F38010222904D118B1E58541
:101F3000204600F07CF8206C40F010002064204621
:101F4000FFF7CAFA70BD10B50146806B09680968D1
:101F5000C9052FD40021C18501680C3151E8002F3B
:101F600022F4807241E80023002BF5D1016814317E
:101F700051E8002F22F0010241E80023002BF5D1A7
:101F80000168143151E8002F22F0400241E800239B
:101F9000002BF5D1202180F83E10016B012909D1D9
:101FA00001680C3151E8002F22F0100241E80023B3
:101FB000002BF5D1016B012902D0FFF77FFC10BD8A
:101FC000818DFFF788FA10BD10B5806B016B012978
:101FD00002D0FFF79BFC10BD818D4908FFF77BFA0B
:101FE00010BD10B50146806B09680968C90516D493
:101FF0000021C1840168143151E8002F22F08002D1
:1020000041E80023002BF5D101680C3151E8002F85
:1020100042F0400241E80023002BF5D110BDFFF74C
:10202000BDFC10BD10B5806BFFF7B9FC10BD016899
:102030000C3151E8002F22F4907241E80023002B6C
:10204000F5D10168143151E8002F22F0010241E876
:102050000023002BF5D1016B012909D101680C3156
:1020600051E8002F22F0100241E80023002BF5D1A7
:10207000202180F83E1000210163704701680C3177
:1020800051E8002F22F0C00241E80023002BF5D1D7
:10209000202180F83D10704708B590F83E102229A5
:1020A00001D0022008BD82684FF480539A4201D1CA
:1020B000016921B1816A9A421BD04AB10AE00268E3
:1020C000816A5268C2F308020A80816A891C08E0AA
:1020D000026972B10268526802F07F020A70816A76
:1020E000491C8162C18D491E0904090CC18503D0B8
:1020F00019E002685268F1E70168CA6822F020021C
:10210000CA600168CA6822F48072CA6001684A69BC
:1021100022F001024A61202180F83E10016B012962
:1021200003D0FFF7CBFB002008BD0021016301684D
:102130000C3151E8002F22F0100241E80023002B5F
:10214000F5D101680A68D20602D50A68496800918B
:10215000818DFFF7C0F9E6E770B5044600680169B4
:10216000E26821F44051114301612169A068E269EC
:1021700008436169114308432168CA6849F20C6346
:102180009A430243CA6020684169A26921F4407100
:102190001143416131492068884202D03049884268
:1021A00002D1FEF771FE01E0FEF75EFEE269002358
:1021B000192164253226B2F5004F626828D0A0FBB1
:1021C0000101930F9200FEF75BF80146B0FBF5F0BA
:1021D0006FF01802504301EB800006EB0010B0FBDB
:1021E000F5F000F0F002B1FBF5F002EB0012B1FBEC
:1021F000F5F06FF01803584301EB800006EB001078
:10220000B0FBF5F000F00F0021681044886070BD4D
:10221000A0FB010192185B41FEF732F80146B0FBCA
:10222000F5F00201B1FBF5F06FF01803584301EB34
:10223000800006EBC000B0FBF5F000F0F80002EB08
:102240004002B1FBF5F0584301EB800006EBC00003
:10225000B0FBF5F000F00700D6E7000000100140E9
:102260000014014038B5816282850025134604467A
:102270000564222084F83E00A26B1C48D063A26B48
:102280001B481064A26B1B48D064A06B0A4605650E
:102290002168A06B091DFEF791FA2068016840686B
:1022A000009084F83C50206948B120680C3050E818
:1022B000001F41F4807140E80012002AF5D1206827
:1022C000143050E8001F41F0010140E80012002ADC
:1022D000F5D12068143050E8001F41F0400140E87B
:1022E0000012002AF5D1002038BD0000471F000869
:1022F000C91F0008FD1E000808B50948FFF7EEF8E1
:10230000074800680168C943C90607D401684068E6
:102310000090BDE808400248FFF7D0BA08BD0000B1
:1023200070060020FEE70907090E002804DB00F113
:10233000E02080F80014704700F00F0000F1E0206A
:1023400080F8141D704702E008C8121F08C1002A57
:10235000FAD170477047002001E001C1121F002A26
:10236000FBD17047FFF7AAFCFEF708FCFFF7D8FC8B
:10237000FFF754FBFFF716FBFFF7F0FBFEF778F8CB
:10238000FFF72EFB00F00EF8FEE70146002084293F
:1023900000D0C81C704710B500B9012000F024FB24
:1023A000002010BD10B500F045FB002010BD7FB52A
:1023B0000D4604464169B0F9080081B1A16971B1C7
:1023C000FFF7E3FFD4E905128DE80700D4E9001018
:1023D0002B46226900F041FC039004B070BDFFF76A
:1023E000D4FF03A9CDE90001208A2B4682B2D4E9AB
:1023F000001000F005FC012801D00020EDE7039853
:10240000EBE700002DE9F041184C0F460546E66861
:102410002068001D00F020FA38B9206890F82C10D0
:1024200001208840216981432161681C07D137B1AF
:102430002168BDE8F0410E48091D00F051BA20683E
:102440003544B5424560216805D2A06BBDE8F04136
:10245000091D00F02DBA606B091D00F029FAA06A71
:10246000854200D2A562BDE8F08100001C0000207A
:10247000980800202DE9F041054600F03DFA2E4C69
:10248000A068401CA06020682C4F10B1606940B368
:102490002DE02560A068012829D1002606EB8600E2
:1024A00007EB800000F0F6F9761C072EF6D32348E0
:1024B0008C3000F0EFF92148A03000F0EBF91F4814
:1024C000B43000F0E7F91D48C83000F0E3F91B48CC
:1024D000DC3000F0DFF919488C3060631430A06301
:1024E00005E02068E96AC06A884200D82560606A11
:1024F000401C6062E96A0120226988401043206123
:1025000001EB810007EB8000291D00F0E9F900F0E4
:1025100013FA606900280CD02068E96AC06A884212
:1025200007D207494FF080500860BFF34F8FBFF3C9
:102530006F8FBDE8F08100001C000020BC07002068
:1025400004ED00E010B5044690F8510058B10128A0
:102550000CD002280FD0102080F31188BFF34F8FCA
:10256000BFF36F8FFEE7206B00F0FAF92046BDE85D
:10257000104000F0F5B910BD10484FF470514207FB
:1025800006D0C01D0D4920F00700411AC1F5705159
:102590000B4A00230144C2E900030839183A21F02C
:1025A000070111604B600B600B1AC0E900139360C8
:1025B0004FF000405360506170470000AC080020AD
:1025C00070000020144E154CA6F1C8074FF080583B
:1025D000DFF84C9012E000BF00F08EF9F068C5689B
:1025E000281D00F039F9A068401EA0606068401EF8
:1025F000606000F0A1F92846FFF7A4FF606800289A
:10260000EAD138680128F9D9C9F80080BFF34F8FA3
:10261000BFF36F8FF2E70000840800201C00002049
:1026200004ED00E02DE9F0479A46DDE90984814692
:102630006FF00303206B03EB82021044089E20F02E
:102640000707780707D0102080F31188BFF34F8F5A
:10265000BFF36F8FFEE7002561B1002023180A5CED
:1026600083F834200A5C12B1401C1028F6D384F899
:10267000435001E084F83450072E00D30626E6626A
:10268000C4E91165201D00F010F904F1180000F0F4
:102690000CF92461C6F107006462A061E56484F866
:1026A000505052464946384600F0C0F82060B8F114
:1026B000000F01D0C8F80040BDE8F08730B51149DF
:1026C00000E011460A688242FBD34B685C188442E2
:1026D00003D1406818444860084643681C18944277
:1026E00009D1084C183C2468A24209D052681A4407
:1026F00042600A6812680260814200D0086030BD02
:102700000460F9E7700000200648416B096829B1B0
:10271000416BC968C9684968816270474FF0FF31F1
:10272000FAE700001C00002008484068401C4FF0F9
:10273000100080F3118804D0BFF34F8FBFF36F8F69
:10274000FEE7BFF34F8FBFF36F8FFEE778000020E7
:102750002DE9F0410546002700F0A2F9324E30681D
:1027600008B9FFF709FF706905424ED1C5B30835B6
:1027700068070ED005F00700C0F10800054468079F
:1027800007D0102080F31188BFF34F8FBFF36F8FF6
:10279000FEE72DB37068854237D8234818300146CC
:1027A0000C6801E020460C466168A94202D221680B
:1027B0000029F7D131688C4227D007682168016071
:1027C00060680837411B10290FD96019420708D0EB
:1027D000102080F31188BFF34F8FBFF36F8FFEE798
:1027E00013E041606560FFF769FF61687068401A37
:1027F0007060B268904200D2B060706901430020FE
:10280000C4E90001F068401CF06000F0B7FA7807F6
:1028100007D0102080F31188BFF34F8FBFF36F8F65
:10282000FEE73846BDE8F0815800002010B5031FD0
:102830004FF080741C601B1F21F001011960191FEB
:10284000044B0B6014390A60091F6FF00202443810
:102850000A6010BD29270008D0E9013201699A6099
:10286000D0E901235A604A68824201D182684A60F5
:10287000002202610868401E086008687047000076
:10288000034B036003F15400086080201060704720
:102890008400002000F108014FF0FF32C0E901126E
:1028A000C160016100210160704700210161704732
:1028B00030B50B685A1C02D000F1080202E0026930
:1028C00004E02246546825689D42FAD953684B605B
:1028D00099608A60516008610168491C016030BDDF
:1028E00042684A6093688B609368596091600861A0
:1028F0000168491C01607047102080F31188BFF304
:102900004F8FBFF36F8F0A494868401C4860012809
:102910000CD10848006810F0FF0F07D0102080F39A
:102920001188BFF34F8FBFF36F8FFEE77047000032
:102930007800002004ED00E00849486828B1401EF6
:10294000486001D180F311887047102080F311880E
:10295000BFF34F8FBFF36F8FFEE7000078000020BA
:1029600070B500282AD0164DA0F108046068696986
:10297000084207D1102080F31188BFF34F8FBFF3B7
:102980006F8FFEE722683AB1102080F31188BFF301
:102990004F8FBFF36F8FFEE78843606000F080F8D1
:1029A00060686968084468602046FFF787FE286908
:1029B000401C2861BDE8704000F0E0B970BD000027
:1029C000580000204FF0E02000210161816105499D
:1029D0004FF47A720968B1FBF2F1491E4161072197
:1029E000016170471800002010B5020014D00F4894
:1029F000006B38B1102080F31188BFF34F8FBFF305
:102A00006F8FFEE700F04CF800211046FFF7FAFC4C
:102A100000F0B4F9002807D105494FF08050086054
:102A2000BFF34F8FBFF36F8F10BD00001C0000205D
:102A300004ED00E010B586B00024039405AA04A9B3
:102A400003A80494FFF71CFFDDE903010094CDE91E
:102A5000011000230EA11048059A00F0FEF80F495E
:102A60000028C86211D0102080F31188BFF34F8F67
:102A7000BFF36F8F4FF0FF30886201204861CC6058
:102A800006B0BDE8104000F041B806B010BD00002F
:102A900049444C4500000000C52500081C000020EA
:102AA0000248016B491C0163704700001C000020B4
:102AB0001448016B11B10121C16170470021C1614E
:102AC0000169B1FA81F1C1F11F0101EB81020E49E7
:102AD00051F822306BB101EB820101F108034A6821
:102AE00052684A609A4201D152684A60D1680160D6
:102AF0007047102080F31188BFF34F8FBFF36F8FA3
:102B0000FEE700001C000020BC0700201CB5374871
:102B10000168374A914207D1102080F31188BFF332
:102B20004F8FBFF36F8FFEE700683149491E88421F
:102B300007D1102080F31188BFF34F8FBFF36F8F41
:102B4000FEE72C4908780190FF20087008788DF87E
:102B500000009DF800009DF8002000F0F000904279
:102B600007D0102080F31188BFF34F8FBFF36F8F12
:102B7000FEE79DF80000204C00F0100020700720B8
:102B8000A06005E09DF8002052008DF80020401E56
:102B90009DF800201206F5D4A060032807D010206D
:102BA00080F31188BFF34F8FBFF36F8FFEE74FF4B1
:102BB0004070A060019808700C482030016841F412
:102BC00070010160016841F070410160FFF7FAFE99
:102BD00000206060FDF706FB0848016841F04041B5
:102BE0000160FDF7EBFA00201CBD000000ED00E0E5
:102BF00071C20F4100E400E07800002034EF00E0F3
:102C00002DE9FF5F8346DDE90E87994616468A4621
:102C10009000FFF79DFD05001CD05420FFF798FDA4
:102C2000040014D00020256384F85100CDE902404F
:102C3000CDE900874B46324651465846FFF7F2FC35
:102C40002046FFF717FC012004B0BDE8F09F28469E
:102C5000FFF786FE4FF0FF30F6E7F0B585B0DDE90F
:102C60000B640A9DA6B1DCB15427009726630226A7
:102C700084F85160002604AFCDE90246CDE9005743
:102C8000FFF7D0FC2046FFF7F5FB049805B0F0BD38
:102C9000102080F31188BFF34F8FBFF36F8FFEE7D3
:102CA000102080F31188BFF34F8FBFF36F8FFEE7C3
:102CB0002DE9F0412F4C0026206B28B1A069401C63
:102CC000A0613046BDE8F081E5686D1CE56013D178
:102CD000606B006838B1102080F31188BFF34F8F0C
:102CE000BFF36F8FFEE7606BA16B6163A063206A27
:102CF000401C2062FFF708FDA06ADFF87C80854257
:102D000009D3606B0068A0B1606BC068C768786861
:102D1000854211D2A0622068C06A00EB800158F899
:102D20002100012800D90126E0690028C9D0012628
:102D3000C7E74FF0FF30EDE7381DFFF78DFDB86AAC
:102D400018B107F11800FFF787FDF96A0120226921
:102D500088401043206101EB810108EB8100391D9F
:102D6000FFF7BEFDF86A2168C96A8842C9D3012607
:102D7000C7E700001C000020BC0700202DE9F04739
:102D80002C4D00242746286B38B1FFF7B5FD286B82
:102D9000401E2863286B40B146E0102080F3118864
:102DA000BFF34F8FBFF36F8FFEE7A968224E01205C
:102DB000D1B3A6F1B40980463068E8B1F068C468C0
:102DC00004F11800FFF748FD201DFFF745FDE06AFC
:102DD0002A6908FA00F11143296100EB800109EB2F
:102DE0008100211DFFF77CFDE06A2968C96A8842DD
:102DF000E2D3C5F81C80DFE70CB1FFF785FCAC69B6
:102E000044B14646FFF754FF00B1EE61641EF9D1AC
:102E10000020A861E86938B108490127380708602F
:102E2000BFF34F8FBFF36F8FFFF786FD3846BDE8C6
:102E3000F08700001C0000207008002004ED00E076
:102E4000982E0008E91C00080000000000000000A7
:102E5000800000000000000000000000A42E000818
:102E6000991E00080300000000000000000100009F
:102E700000000000000000000006101600061016FA
:102E8000000000000000000001020304060708091A
:102E9000000000000102030464656661756C7454EF
:102EA00061736B005478527800000000CC2E00084B
:102EB000000000208400000046230008502F000876
:102EC000840000202C480000562300080000000069
:102ED00000000000000000000100000010000000E1
:102EE000000000000024F4000000000000000000CA
:102EF00000000000000000000000000000000000D2
:102F000000000000000000000000000000000000C1
:102F100000000000000000000000000000000000B1
:102F200000000000000000000000000000000000A1
:102F30000000000000000000000000000000000091
:102F40000000000000000000AAAAAAAA00000000D9
:040000050800018965
:00000001FF
